{
  "contractName": "GestioneRuoli",
  "abi": [
    {
      "inputs": [],
      "stateMutability": "nonpayable",
      "type": "constructor"
    },
    {
      "anonymous": false,
      "inputs": [
        {
          "indexed": false,
          "internalType": "bytes32",
          "name": "id",
          "type": "bytes32"
        },
        {
          "indexed": false,
          "internalType": "string",
          "name": "nome",
          "type": "string"
        },
        {
          "indexed": false,
          "internalType": "string",
          "name": "cognome",
          "type": "string"
        },
        {
          "indexed": false,
          "internalType": "string",
          "name": "dataDiNascita",
          "type": "string"
        }
      ],
      "name": "NuovoCliente",
      "type": "event"
    },
    {
      "inputs": [
        {
          "internalType": "bytes32",
          "name": "",
          "type": "bytes32"
        }
      ],
      "name": "clienti",
      "outputs": [
        {
          "internalType": "bytes32",
          "name": "id",
          "type": "bytes32"
        },
        {
          "internalType": "string",
          "name": "nome",
          "type": "string"
        },
        {
          "internalType": "string",
          "name": "cognome",
          "type": "string"
        },
        {
          "internalType": "string",
          "name": "dataDiNascita",
          "type": "string"
        },
        {
          "internalType": "string",
          "name": "note",
          "type": "string"
        }
      ],
      "stateMutability": "view",
      "type": "function"
    },
    {
      "inputs": [
        {
          "internalType": "address",
          "name": "",
          "type": "address"
        }
      ],
      "name": "funzionari",
      "outputs": [
        {
          "internalType": "address",
          "name": "id",
          "type": "address"
        },
        {
          "internalType": "enum GestioneRuoli.Negozio",
          "name": "negozio",
          "type": "uint8"
        }
      ],
      "stateMutability": "view",
      "type": "function"
    },
    {
      "inputs": [
        {
          "internalType": "address",
          "name": "",
          "type": "address"
        }
      ],
      "name": "negozio_funzionario",
      "outputs": [
        {
          "internalType": "enum GestioneRuoli.Negozio",
          "name": "",
          "type": "uint8"
        }
      ],
      "stateMutability": "view",
      "type": "function"
    },
    {
      "inputs": [
        {
          "internalType": "enum GestioneRuoli.Ruolo",
          "name": "",
          "type": "uint8"
        },
        {
          "internalType": "uint256",
          "name": "",
          "type": "uint256"
        }
      ],
      "name": "ruoli",
      "outputs": [
        {
          "internalType": "address",
          "name": "",
          "type": "address"
        }
      ],
      "stateMutability": "view",
      "type": "function"
    },
    {
      "inputs": [
        {
          "internalType": "address[]",
          "name": "a",
          "type": "address[]"
        },
        {
          "internalType": "address",
          "name": "x",
          "type": "address"
        }
      ],
      "name": "contains",
      "outputs": [
        {
          "internalType": "bool",
          "name": "",
          "type": "bool"
        }
      ],
      "stateMutability": "pure",
      "type": "function"
    },
    {
      "inputs": [
        {
          "internalType": "address",
          "name": "id",
          "type": "address"
        },
        {
          "internalType": "enum GestioneRuoli.Negozio",
          "name": "n",
          "type": "uint8"
        }
      ],
      "name": "addFunzionario",
      "outputs": [],
      "stateMutability": "nonpayable",
      "type": "function"
    },
    {
      "inputs": [
        {
          "internalType": "string",
          "name": "nome",
          "type": "string"
        },
        {
          "internalType": "string",
          "name": "cognome",
          "type": "string"
        },
        {
          "internalType": "string",
          "name": "data_nascita",
          "type": "string"
        }
      ],
      "name": "addCliente",
      "outputs": [
        {
          "internalType": "bytes32",
          "name": "",
          "type": "bytes32"
        }
      ],
      "stateMutability": "nonpayable",
      "type": "function"
    }
  ],
  "bytecode": "0x60806040523480156200001157600080fd5b5033600460006101000a81548173ffffffffffffffffffffffffffffffffffffffff021916908373ffffffffffffffffffffffffffffffffffffffff160217905550620000663360086200006c60201b60201c565b620003ec565b600460009054906101000a900473ffffffffffffffffffffffffffffffffffffffff1673ffffffffffffffffffffffffffffffffffffffff163373ffffffffffffffffffffffffffffffffffffffff1614620000ff576040517f08c379a0000000000000000000000000000000000000000000000000000000008152600401620000f6906200039b565b60405180910390fd5b600060405180604001604052808473ffffffffffffffffffffffffffffffffffffffff1681526020018360098111156200013e576200013d620003bd565b5b815250905080600260008573ffffffffffffffffffffffffffffffffffffffff1673ffffffffffffffffffffffffffffffffffffffff16815260200190815260200160002060008201518160000160006101000a81548173ffffffffffffffffffffffffffffffffffffffff021916908373ffffffffffffffffffffffffffffffffffffffff16021790555060208201518160000160146101000a81548160ff02191690836009811115620001f857620001f7620003bd565b5b0217905550905050600080806001811115620002195762000218620003bd565b5b60018111156200022e576200022d620003bd565b5b815260200190815260200160002081600001519080600181540180825580915050600190039060005260206000200160009091909190916101000a81548173ffffffffffffffffffffffffffffffffffffffff021916908373ffffffffffffffffffffffffffffffffffffffff1602179055508160016000836000015173ffffffffffffffffffffffffffffffffffffffff1673ffffffffffffffffffffffffffffffffffffffff16815260200190815260200160002060006101000a81548160ff021916908360098111156200030a5762000309620003bd565b5b0217905550505050565b600082825260208201905092915050565b7f536f6c6f20696c2070726f70726965746172696f2070756f272073766f6c676560008201527f726520717565737461206f706572617a696f6e65000000000000000000000000602082015250565b60006200038360348362000314565b9150620003908262000325565b604082019050919050565b60006020820190508181036000830152620003b68162000374565b9050919050565b7f4e487b7100000000000000000000000000000000000000000000000000000000600052602160045260246000fd5b61160180620003fc6000396000f3fe608060405234801561001057600080fd5b506004361061007d5760003560e01c806353b76d5a1161005b57806353b76d5a1461011757806358e2a22714610147578063732783d214610163578063830a1b5b146101935761007d565b80631e3ffc47146100825780633da80d66146100b65780634522a1b6146100e6575b600080fd5b61009c60048036038101906100979190610bad565b6101c3565b6040516100ad959493929190610c82565b60405180910390f35b6100d060048036038101906100cb9190610e97565b610419565b6040516100dd9190610f0e565b60405180910390f35b61010060048036038101906100fb9190610f29565b61049d565b60405161010e929190610fdc565b60405180910390f35b610131600480360381019061012c9190610f29565b6104ee565b60405161013e9190611005565b60405180910390f35b610161600480360381019061015c9190611045565b61050e565b005b61017d6004803603810190610178919061113a565b6107a4565b60405161018a91906111e1565b60405180910390f35b6101ad60048036038101906101a89190611257565b610a72565b6040516101ba9190611297565b60405180910390f35b60036020528060005260406000206000915090508060000154908060010180546101ec906112e1565b80601f0160208091040260200160405190810160405280929190818152602001828054610218906112e1565b80156102655780601f1061023a57610100808354040283529160200191610265565b820191906000526020600020905b81548152906001019060200180831161024857829003601f168201915b50505050509080600201805461027a906112e1565b80601f01602080910402602001604051908101604052809291908181526020018280546102a6906112e1565b80156102f35780601f106102c8576101008083540402835291602001916102f3565b820191906000526020600020905b8154815290600101906020018083116102d657829003601f168201915b505050505090806003018054610308906112e1565b80601f0160208091040260200160405190810160405280929190818152602001828054610334906112e1565b80156103815780601f1061035657610100808354040283529160200191610381565b820191906000526020600020905b81548152906001019060200180831161036457829003601f168201915b505050505090806004018054610396906112e1565b80601f01602080910402602001604051908101604052809291908181526020018280546103c2906112e1565b801561040f5780601f106103e45761010080835404028352916020019161040f565b820191906000526020600020905b8154815290600101906020018083116103f257829003601f168201915b5050505050905085565b6000806000905060005b84518110156104925784818151811061043f5761043e611313565b5b602002602001015173ffffffffffffffffffffffffffffffffffffffff168473ffffffffffffffffffffffffffffffffffffffff16141561047f57600191505b808061048a90611371565b915050610423565b508091505092915050565b60026020528060005260406000206000915090508060000160009054906101000a900473ffffffffffffffffffffffffffffffffffffffff16908060000160149054906101000a900460ff16905082565b60016020528060005260406000206000915054906101000a900460ff1681565b600460009054906101000a900473ffffffffffffffffffffffffffffffffffffffff1673ffffffffffffffffffffffffffffffffffffffff163373ffffffffffffffffffffffffffffffffffffffff161461059e576040517f08c379a00000000000000000000000000000000000000000000000000000000081526004016105959061142c565b60405180910390fd5b600060405180604001604052808473ffffffffffffffffffffffffffffffffffffffff1681526020018360098111156105da576105d9610f65565b5b815250905080600260008573ffffffffffffffffffffffffffffffffffffffff1673ffffffffffffffffffffffffffffffffffffffff16815260200190815260200160002060008201518160000160006101000a81548173ffffffffffffffffffffffffffffffffffffffff021916908373ffffffffffffffffffffffffffffffffffffffff16021790555060208201518160000160146101000a81548160ff0219169083600981111561069157610690610f65565b5b02179055509050506000808060018111156106af576106ae610f65565b5b60018111156106c1576106c0610f65565b5b815260200190815260200160002081600001519080600181540180825580915050600190039060005260206000200160009091909190916101000a81548173ffffffffffffffffffffffffffffffffffffffff021916908373ffffffffffffffffffffffffffffffffffffffff1602179055508160016000836000015173ffffffffffffffffffffffffffffffffffffffff1673ffffffffffffffffffffffffffffffffffffffff16815260200190815260200160002060006101000a81548160ff0219169083600981111561079a57610799610f65565b5b0217905550505050565b6000600460009054906101000a900473ffffffffffffffffffffffffffffffffffffffff1673ffffffffffffffffffffffffffffffffffffffff163373ffffffffffffffffffffffffffffffffffffffff1614806108c257506108c160008080600181111561081657610815610f65565b5b600181111561082857610827610f65565b5b81526020019081526020016000208054806020026020016040519081016040528092919081815260200182805480156108b657602002820191906000526020600020905b8160009054906101000a900473ffffffffffffffffffffffffffffffffffffffff1673ffffffffffffffffffffffffffffffffffffffff168152602001906001019080831161086c575b505050505033610419565b5b610901576040517f08c379a00000000000000000000000000000000000000000000000000000000081526004016108f8906114e4565b60405180910390fd5b600084848460405160200161091893929190611540565b60405160208183030381529060405280519060200120905060006040518060a001604052808381526020018781526020018681526020018581526020016040518060400160405280600481526020017f6e756c6c0000000000000000000000000000000000000000000000000000000081525081525090508060036000836000015181526020019081526020016000206000820151816000015560208201518160010190805190602001906109ce929190610ac0565b5060408201518160020190805190602001906109eb929190610ac0565b506060820151816003019080519060200190610a08929190610ac0565b506080820151816004019080519060200190610a25929190610ac0565b509050507fc4fef2e4f66b4012fc36bbc7af2dc5ecfd552e90ba419ae25b1872fc72ca1aac82878787604051610a5e9493929190611571565b60405180910390a181925050509392505050565b60006020528160005260406000208181548110610a8e57600080fd5b906000526020600020016000915091509054906101000a900473ffffffffffffffffffffffffffffffffffffffff1681565b828054610acc906112e1565b90600052602060002090601f016020900481019282610aee5760008555610b35565b82601f10610b0757805160ff1916838001178555610b35565b82800160010185558215610b35579182015b82811115610b34578251825591602001919060010190610b19565b5b509050610b429190610b46565b5090565b5b80821115610b5f576000816000905550600101610b47565b5090565b6000604051905090565b600080fd5b600080fd5b6000819050919050565b610b8a81610b77565b8114610b9557600080fd5b50565b600081359050610ba781610b81565b92915050565b600060208284031215610bc357610bc2610b6d565b5b6000610bd184828501610b98565b91505092915050565b610be381610b77565b82525050565b600081519050919050565b600082825260208201905092915050565b60005b83811015610c23578082015181840152602081019050610c08565b83811115610c32576000848401525b50505050565b6000601f19601f8301169050919050565b6000610c5482610be9565b610c5e8185610bf4565b9350610c6e818560208601610c05565b610c7781610c38565b840191505092915050565b600060a082019050610c976000830188610bda565b8181036020830152610ca98187610c49565b90508181036040830152610cbd8186610c49565b90508181036060830152610cd18185610c49565b90508181036080830152610ce58184610c49565b90509695505050505050565b600080fd5b7f4e487b7100000000000000000000000000000000000000000000000000000000600052604160045260246000fd5b610d2e82610c38565b810181811067ffffffffffffffff82111715610d4d57610d4c610cf6565b5b80604052505050565b6000610d60610b63565b9050610d6c8282610d25565b919050565b600067ffffffffffffffff821115610d8c57610d8b610cf6565b5b602082029050602081019050919050565b600080fd5b600073ffffffffffffffffffffffffffffffffffffffff82169050919050565b6000610dcd82610da2565b9050919050565b610ddd81610dc2565b8114610de857600080fd5b50565b600081359050610dfa81610dd4565b92915050565b6000610e13610e0e84610d71565b610d56565b90508083825260208201905060208402830185811115610e3657610e35610d9d565b5b835b81811015610e5f5780610e4b8882610deb565b845260208401935050602081019050610e38565b5050509392505050565b600082601f830112610e7e57610e7d610cf1565b5b8135610e8e848260208601610e00565b91505092915050565b60008060408385031215610eae57610ead610b6d565b5b600083013567ffffffffffffffff811115610ecc57610ecb610b72565b5b610ed885828601610e69565b9250506020610ee985828601610deb565b9150509250929050565b60008115159050919050565b610f0881610ef3565b82525050565b6000602082019050610f236000830184610eff565b92915050565b600060208284031215610f3f57610f3e610b6d565b5b6000610f4d84828501610deb565b91505092915050565b610f5f81610dc2565b82525050565b7f4e487b7100000000000000000000000000000000000000000000000000000000600052602160045260246000fd5b600a8110610fa557610fa4610f65565b5b50565b6000819050610fb682610f94565b919050565b6000610fc682610fa8565b9050919050565b610fd681610fbb565b82525050565b6000604082019050610ff16000830185610f56565b610ffe6020830184610fcd565b9392505050565b600060208201905061101a6000830184610fcd565b92915050565b600a811061102d57600080fd5b50565b60008135905061103f81611020565b92915050565b6000806040838503121561105c5761105b610b6d565b5b600061106a85828601610deb565b925050602061107b85828601611030565b9150509250929050565b600080fd5b600067ffffffffffffffff8211156110a5576110a4610cf6565b5b6110ae82610c38565b9050602081019050919050565b82818337600083830152505050565b60006110dd6110d88461108a565b610d56565b9050828152602081018484840111156110f9576110f8611085565b5b6111048482856110bb565b509392505050565b600082601f83011261112157611120610cf1565b5b81356111318482602086016110ca565b91505092915050565b60008060006060848603121561115357611152610b6d565b5b600084013567ffffffffffffffff81111561117157611170610b72565b5b61117d8682870161110c565b935050602084013567ffffffffffffffff81111561119e5761119d610b72565b5b6111aa8682870161110c565b925050604084013567ffffffffffffffff8111156111cb576111ca610b72565b5b6111d78682870161110c565b9150509250925092565b60006020820190506111f66000830184610bda565b92915050565b6002811061120957600080fd5b50565b60008135905061121b816111fc565b92915050565b6000819050919050565b61123481611221565b811461123f57600080fd5b50565b6000813590506112518161122b565b92915050565b6000806040838503121561126e5761126d610b6d565b5b600061127c8582860161120c565b925050602061128d85828601611242565b9150509250929050565b60006020820190506112ac6000830184610f56565b92915050565b7f4e487b7100000000000000000000000000000000000000000000000000000000600052602260045260246000fd5b600060028204905060018216806112f957607f821691505b6020821081141561130d5761130c6112b2565b5b50919050565b7f4e487b7100000000000000000000000000000000000000000000000000000000600052603260045260246000fd5b7f4e487b7100000000000000000000000000000000000000000000000000000000600052601160045260246000fd5b600061137c82611221565b91507fffffffffffffffffffffffffffffffffffffffffffffffffffffffffffffffff8214156113af576113ae611342565b5b600182019050919050565b7f536f6c6f20696c2070726f70726965746172696f2070756f272073766f6c676560008201527f726520717565737461206f706572617a696f6e65000000000000000000000000602082015250565b6000611416603483610bf4565b9150611421826113ba565b604082019050919050565b6000602082019050818103600083015261144581611409565b9050919050565b7f536f6c6f20756e2066756e7a696f6e617265206f707075726520756e206f776e60008201527f657220706f73736f6e6f2073766f6c6765726520717565737461206f7065726160208201527f7a696f6e65000000000000000000000000000000000000000000000000000000604082015250565b60006114ce604583610bf4565b91506114d98261144c565b606082019050919050565b600060208201905081810360008301526114fd816114c1565b9050919050565b600081905092915050565b600061151a82610be9565b6115248185611504565b9350611534818560208601610c05565b80840191505092915050565b600061154c828661150f565b9150611558828561150f565b9150611564828461150f565b9150819050949350505050565b60006080820190506115866000830187610bda565b81810360208301526115988186610c49565b905081810360408301526115ac8185610c49565b905081810360608301526115c08184610c49565b90509594505050505056fea26469706673582212204451bbbee4f02ed58a60f536af3d7306fe9f9f597787f8a2c4c0d9d84771c53d64736f6c634300080b0033",
  "immutableReferences": {},
  "source": "// SPDX-License-Identifier: MIT\npragma solidity >=0.4.22 <0.9.0;\n\ncontract GestioneRuoli{\n\n    enum Negozio{ \n        CONAD,\n        CARREFOUR,\n        GS,\n        COOP,\n        TODIS,\n        INS,\n        PENNYS,\n        PEWEX,\n        LIDL,\n        PANORAMA\n    }\n\n    enum Ruolo{\n        Funzionario,\n        Cliente\n    }\n\n    struct Funzionario{\n        address id;\n        Negozio negozio;\n    }\n\n    struct Cliente {\n        bytes32 id;\n        string nome;\n        string cognome;\n        string dataDiNascita;\n        string note;\n    }\n\n    struct Carta {\n        bytes32 id;\n        bytes32 cliente;\n        uint punti;\n        Negozio negozio;\n    }\n\n    \n    mapping(Ruolo => address[]) public ruoli;  //associa ad ogni ruolo una lista di indirizzi\n    mapping(address => Negozio) public negozio_funzionario;//associa un indirizzo (di un funzionario) a un negozio\n    mapping(address => Funzionario) public funzionari;//associa un indirizzo a un ruolo funzionario\n    mapping(bytes32 => Cliente) public clienti;//associa un indirizzo creato a un ruolo cliente\n\n\n    address admin; //chi fa il deploy del contratto  il proprietario, ci servir per gestire i permessi\n\n    constructor(){\n        admin = msg.sender;\n        addFunzionario(msg.sender, Negozio.LIDL);\n    }\n\n\n    function contains(address[] memory a, address x) public pure returns(bool){ //pure non modifica la blockchain, funzionale al codice\n        bool check = false;\n    \n        for (uint i=0; i < a.length; i++) {\n            if (x == a[i]) {\n                check = true;\n            }\n        }\n        return check;\n    }\n\n    /**\n    * @dev Funzione che crea un nuovo funzionario e gli assegna un codice univoco\n    * Questa funzione pu essere invocata solo dal proprietario\n    * @param id address del funzionario\n    * @param n negozio nel quale opera il funzionario\n    */\n    function addFunzionario(address id, Negozio n) public onlyOwner{\n        Funzionario memory f = Funzionario(address(id), Negozio (n));\n        funzionari[id] = f;\n        ruoli[Ruolo.Funzionario].push(f.id);\n        negozio_funzionario[f.id] = n;\n    }\n\n    event NuovoCliente(\n        bytes32 id,\n        string nome,\n        string cognome,\n        string dataDiNascita\n    );\n\n    /**\n    * @dev Funzione che crea un nuovo cliente e gli assegna un codice univoco\n    * Questa funzione pu essere invocata dal proprietario o da un funzionario\n    * @param nome nome del cliente\n    * @param cognome cognome del cliente\n    * @param data_nascita data di nascita del cliente\n    * @return ID generato\n    */\n    function addCliente(string memory nome, string memory cognome, string memory data_nascita) public onlyFunzionarioOrOwner returns(bytes32){\n        bytes32 ID = keccak256(abi.encodePacked(nome, cognome, data_nascita));\n        Cliente memory c = Cliente(ID, nome, cognome, data_nascita, \"null\");\n        clienti[c.id] = c;\n        emit NuovoCliente(ID, nome, cognome, data_nascita);\n        return ID;\n    }\n\n    modifier onlyOwner{\n        require(msg.sender == admin, \"Solo il proprietario puo' svolgere questa operazione\");\n        _; //esegue il codice che viene dopo, forse\n    }\n\n    modifier onlyFunzionarioOrOwner{\n        require(msg.sender == admin || contains(ruoli[Ruolo.Funzionario], msg.sender), \"Solo un funzionare oppure un owner possono svolgere questa operazione\");\n        _;\n    }\n\n\n    \n}",
  "sourcePath": "/home/gabriele/Scrivania/SDC/Progetto-Sistemi-distribuiti-cooperativi/contracts/GestioneRuoli.sol",
  "compiler": {
    "name": "solc",
    "version": "0.8.11+commit.d7f03943.Emscripten.clang"
  },
  "schemaVersion": "3.4.3",
  "updatedAt": "2022-02-13T11:59:05.200Z",
  "devdoc": {
    "kind": "dev",
    "methods": {
      "addCliente(string,string,string)": {
        "details": "Funzione che crea un nuovo cliente e gli assegna un codice univoco Questa funzione pu essere invocata dal proprietario o da un funzionario",
        "params": {
          "cognome": "cognome del cliente",
          "data_nascita": "data di nascita del cliente",
          "nome": "nome del cliente"
        },
        "returns": {
          "_0": "ID generato"
        }
      },
      "addFunzionario(address,uint8)": {
        "details": "Funzione che crea un nuovo funzionario e gli assegna un codice univoco Questa funzione pu essere invocata solo dal proprietario",
        "params": {
          "id": "address del funzionario",
          "n": "negozio nel quale opera il funzionario"
        }
      }
    },
    "version": 1
  },
  "userdoc": {
    "kind": "user",
    "methods": {},
    "version": 1
  }
}