{
  "contractName": "GestioneRuoli",
  "abi": [
    {
      "inputs": [],
      "stateMutability": "nonpayable",
      "type": "constructor"
    },
    {
      "inputs": [
        {
          "internalType": "bytes32",
          "name": "",
          "type": "bytes32"
        }
      ],
      "name": "clienti",
      "outputs": [
        {
          "internalType": "bytes32",
          "name": "id",
          "type": "bytes32"
        },
        {
          "internalType": "string",
          "name": "nome",
          "type": "string"
        },
        {
          "internalType": "string",
          "name": "cognome",
          "type": "string"
        },
        {
          "internalType": "string",
          "name": "dataDiNascita",
          "type": "string"
        },
        {
          "internalType": "string",
          "name": "note",
          "type": "string"
        }
      ],
      "stateMutability": "view",
      "type": "function"
    },
    {
      "inputs": [
        {
          "internalType": "address",
          "name": "",
          "type": "address"
        }
      ],
      "name": "funzionari",
      "outputs": [
        {
          "internalType": "address",
          "name": "id",
          "type": "address"
        },
        {
          "internalType": "enum GestioneRuoli.Negozio",
          "name": "negozio",
          "type": "uint8"
        }
      ],
      "stateMutability": "view",
      "type": "function"
    },
    {
      "inputs": [
        {
          "internalType": "address",
          "name": "",
          "type": "address"
        }
      ],
      "name": "negozio_funzionario",
      "outputs": [
        {
          "internalType": "enum GestioneRuoli.Negozio",
          "name": "",
          "type": "uint8"
        }
      ],
      "stateMutability": "view",
      "type": "function"
    },
    {
      "inputs": [
        {
          "internalType": "enum GestioneRuoli.Ruolo",
          "name": "",
          "type": "uint8"
        },
        {
          "internalType": "uint256",
          "name": "",
          "type": "uint256"
        }
      ],
      "name": "ruoli",
      "outputs": [
        {
          "internalType": "address",
          "name": "",
          "type": "address"
        }
      ],
      "stateMutability": "view",
      "type": "function"
    },
    {
      "inputs": [
        {
          "internalType": "address[]",
          "name": "a",
          "type": "address[]"
        },
        {
          "internalType": "address",
          "name": "x",
          "type": "address"
        }
      ],
      "name": "contains",
      "outputs": [
        {
          "internalType": "bool",
          "name": "",
          "type": "bool"
        }
      ],
      "stateMutability": "pure",
      "type": "function"
    },
    {
      "inputs": [
        {
          "internalType": "address",
          "name": "id",
          "type": "address"
        },
        {
          "internalType": "enum GestioneRuoli.Negozio",
          "name": "n",
          "type": "uint8"
        }
      ],
      "name": "addFunzionario",
      "outputs": [],
      "stateMutability": "nonpayable",
      "type": "function"
    },
    {
      "inputs": [
        {
          "internalType": "string",
          "name": "nome",
          "type": "string"
        },
        {
          "internalType": "string",
          "name": "cognome",
          "type": "string"
        },
        {
          "internalType": "string",
          "name": "data_nascita",
          "type": "string"
        }
      ],
      "name": "addCliente",
      "outputs": [
        {
          "internalType": "bytes32",
          "name": "",
          "type": "bytes32"
        }
      ],
      "stateMutability": "nonpayable",
      "type": "function"
    }
  ],
  "bytecode": "0x608060405234801561001057600080fd5b5033600460006101000a81548173ffffffffffffffffffffffffffffffffffffffff021916908373ffffffffffffffffffffffffffffffffffffffff16021790555061156a806100616000396000f3fe608060405234801561001057600080fd5b506004361061007d5760003560e01c806353b76d5a1161005b57806353b76d5a1461011757806358e2a22714610147578063732783d214610163578063830a1b5b146101935761007d565b80631e3ffc47146100825780633da80d66146100b65780634522a1b6146100e6575b600080fd5b61009c60048036038101906100979190610b70565b6101c3565b6040516100ad959493929190610c45565b60405180910390f35b6100d060048036038101906100cb9190610e5a565b610419565b6040516100dd9190610ed1565b60405180910390f35b61010060048036038101906100fb9190610eec565b61049d565b60405161010e929190610f9f565b60405180910390f35b610131600480360381019061012c9190610eec565b6104ee565b60405161013e9190610fc8565b60405180910390f35b610161600480360381019061015c9190611008565b61050e565b005b61017d600480360381019061017891906110fd565b6107a4565b60405161018a91906111a4565b60405180910390f35b6101ad60048036038101906101a8919061121a565b610a35565b6040516101ba919061125a565b60405180910390f35b60036020528060005260406000206000915090508060000154908060010180546101ec906112a4565b80601f0160208091040260200160405190810160405280929190818152602001828054610218906112a4565b80156102655780601f1061023a57610100808354040283529160200191610265565b820191906000526020600020905b81548152906001019060200180831161024857829003601f168201915b50505050509080600201805461027a906112a4565b80601f01602080910402602001604051908101604052809291908181526020018280546102a6906112a4565b80156102f35780601f106102c8576101008083540402835291602001916102f3565b820191906000526020600020905b8154815290600101906020018083116102d657829003601f168201915b505050505090806003018054610308906112a4565b80601f0160208091040260200160405190810160405280929190818152602001828054610334906112a4565b80156103815780601f1061035657610100808354040283529160200191610381565b820191906000526020600020905b81548152906001019060200180831161036457829003601f168201915b505050505090806004018054610396906112a4565b80601f01602080910402602001604051908101604052809291908181526020018280546103c2906112a4565b801561040f5780601f106103e45761010080835404028352916020019161040f565b820191906000526020600020905b8154815290600101906020018083116103f257829003601f168201915b5050505050905085565b6000806000905060005b84518110156104925784818151811061043f5761043e6112d6565b5b602002602001015173ffffffffffffffffffffffffffffffffffffffff168473ffffffffffffffffffffffffffffffffffffffff16141561047f57600191505b808061048a90611334565b915050610423565b508091505092915050565b60026020528060005260406000206000915090508060000160009054906101000a900473ffffffffffffffffffffffffffffffffffffffff16908060000160149054906101000a900460ff16905082565b60016020528060005260406000206000915054906101000a900460ff1681565b600460009054906101000a900473ffffffffffffffffffffffffffffffffffffffff1673ffffffffffffffffffffffffffffffffffffffff163373ffffffffffffffffffffffffffffffffffffffff161461059e576040517f08c379a0000000000000000000000000000000000000000000000000000000008152600401610595906113ef565b60405180910390fd5b600060405180604001604052808473ffffffffffffffffffffffffffffffffffffffff1681526020018360098111156105da576105d9610f28565b5b815250905080600260008573ffffffffffffffffffffffffffffffffffffffff1673ffffffffffffffffffffffffffffffffffffffff16815260200190815260200160002060008201518160000160006101000a81548173ffffffffffffffffffffffffffffffffffffffff021916908373ffffffffffffffffffffffffffffffffffffffff16021790555060208201518160000160146101000a81548160ff0219169083600981111561069157610690610f28565b5b02179055509050506000808060018111156106af576106ae610f28565b5b60018111156106c1576106c0610f28565b5b815260200190815260200160002081600001519080600181540180825580915050600190039060005260206000200160009091909190916101000a81548173ffffffffffffffffffffffffffffffffffffffff021916908373ffffffffffffffffffffffffffffffffffffffff1602179055508160016000836000015173ffffffffffffffffffffffffffffffffffffffff1673ffffffffffffffffffffffffffffffffffffffff16815260200190815260200160002060006101000a81548160ff0219169083600981111561079a57610799610f28565b5b0217905550505050565b6000600460009054906101000a900473ffffffffffffffffffffffffffffffffffffffff1673ffffffffffffffffffffffffffffffffffffffff163373ffffffffffffffffffffffffffffffffffffffff1614806108c257506108c160008080600181111561081657610815610f28565b5b600181111561082857610827610f28565b5b81526020019081526020016000208054806020026020016040519081016040528092919081815260200182805480156108b657602002820191906000526020600020905b8160009054906101000a900473ffffffffffffffffffffffffffffffffffffffff1673ffffffffffffffffffffffffffffffffffffffff168152602001906001019080831161086c575b505050505033610419565b5b610901576040517f08c379a00000000000000000000000000000000000000000000000000000000081526004016108f8906114a7565b60405180910390fd5b600084848460405160200161091893929190611503565b60405160208183030381529060405280519060200120905060006040518060a001604052808381526020018781526020018681526020018581526020016040518060400160405280600481526020017f6e756c6c0000000000000000000000000000000000000000000000000000000081525081525090508060036000836000015181526020019081526020016000206000820151816000015560208201518160010190805190602001906109ce929190610a83565b5060408201518160020190805190602001906109eb929190610a83565b506060820151816003019080519060200190610a08929190610a83565b506080820151816004019080519060200190610a25929190610a83565b5090505081925050509392505050565b60006020528160005260406000208181548110610a5157600080fd5b906000526020600020016000915091509054906101000a900473ffffffffffffffffffffffffffffffffffffffff1681565b828054610a8f906112a4565b90600052602060002090601f016020900481019282610ab15760008555610af8565b82601f10610aca57805160ff1916838001178555610af8565b82800160010185558215610af8579182015b82811115610af7578251825591602001919060010190610adc565b5b509050610b059190610b09565b5090565b5b80821115610b22576000816000905550600101610b0a565b5090565b6000604051905090565b600080fd5b600080fd5b6000819050919050565b610b4d81610b3a565b8114610b5857600080fd5b50565b600081359050610b6a81610b44565b92915050565b600060208284031215610b8657610b85610b30565b5b6000610b9484828501610b5b565b91505092915050565b610ba681610b3a565b82525050565b600081519050919050565b600082825260208201905092915050565b60005b83811015610be6578082015181840152602081019050610bcb565b83811115610bf5576000848401525b50505050565b6000601f19601f8301169050919050565b6000610c1782610bac565b610c218185610bb7565b9350610c31818560208601610bc8565b610c3a81610bfb565b840191505092915050565b600060a082019050610c5a6000830188610b9d565b8181036020830152610c6c8187610c0c565b90508181036040830152610c808186610c0c565b90508181036060830152610c948185610c0c565b90508181036080830152610ca88184610c0c565b90509695505050505050565b600080fd5b7f4e487b7100000000000000000000000000000000000000000000000000000000600052604160045260246000fd5b610cf182610bfb565b810181811067ffffffffffffffff82111715610d1057610d0f610cb9565b5b80604052505050565b6000610d23610b26565b9050610d2f8282610ce8565b919050565b600067ffffffffffffffff821115610d4f57610d4e610cb9565b5b602082029050602081019050919050565b600080fd5b600073ffffffffffffffffffffffffffffffffffffffff82169050919050565b6000610d9082610d65565b9050919050565b610da081610d85565b8114610dab57600080fd5b50565b600081359050610dbd81610d97565b92915050565b6000610dd6610dd184610d34565b610d19565b90508083825260208201905060208402830185811115610df957610df8610d60565b5b835b81811015610e225780610e0e8882610dae565b845260208401935050602081019050610dfb565b5050509392505050565b600082601f830112610e4157610e40610cb4565b5b8135610e51848260208601610dc3565b91505092915050565b60008060408385031215610e7157610e70610b30565b5b600083013567ffffffffffffffff811115610e8f57610e8e610b35565b5b610e9b85828601610e2c565b9250506020610eac85828601610dae565b9150509250929050565b60008115159050919050565b610ecb81610eb6565b82525050565b6000602082019050610ee66000830184610ec2565b92915050565b600060208284031215610f0257610f01610b30565b5b6000610f1084828501610dae565b91505092915050565b610f2281610d85565b82525050565b7f4e487b7100000000000000000000000000000000000000000000000000000000600052602160045260246000fd5b600a8110610f6857610f67610f28565b5b50565b6000819050610f7982610f57565b919050565b6000610f8982610f6b565b9050919050565b610f9981610f7e565b82525050565b6000604082019050610fb46000830185610f19565b610fc16020830184610f90565b9392505050565b6000602082019050610fdd6000830184610f90565b92915050565b600a8110610ff057600080fd5b50565b60008135905061100281610fe3565b92915050565b6000806040838503121561101f5761101e610b30565b5b600061102d85828601610dae565b925050602061103e85828601610ff3565b9150509250929050565b600080fd5b600067ffffffffffffffff82111561106857611067610cb9565b5b61107182610bfb565b9050602081019050919050565b82818337600083830152505050565b60006110a061109b8461104d565b610d19565b9050828152602081018484840111156110bc576110bb611048565b5b6110c784828561107e565b509392505050565b600082601f8301126110e4576110e3610cb4565b5b81356110f484826020860161108d565b91505092915050565b60008060006060848603121561111657611115610b30565b5b600084013567ffffffffffffffff81111561113457611133610b35565b5b611140868287016110cf565b935050602084013567ffffffffffffffff81111561116157611160610b35565b5b61116d868287016110cf565b925050604084013567ffffffffffffffff81111561118e5761118d610b35565b5b61119a868287016110cf565b9150509250925092565b60006020820190506111b96000830184610b9d565b92915050565b600281106111cc57600080fd5b50565b6000813590506111de816111bf565b92915050565b6000819050919050565b6111f7816111e4565b811461120257600080fd5b50565b600081359050611214816111ee565b92915050565b6000806040838503121561123157611230610b30565b5b600061123f858286016111cf565b925050602061125085828601611205565b9150509250929050565b600060208201905061126f6000830184610f19565b92915050565b7f4e487b7100000000000000000000000000000000000000000000000000000000600052602260045260246000fd5b600060028204905060018216806112bc57607f821691505b602082108114156112d0576112cf611275565b5b50919050565b7f4e487b7100000000000000000000000000000000000000000000000000000000600052603260045260246000fd5b7f4e487b7100000000000000000000000000000000000000000000000000000000600052601160045260246000fd5b600061133f826111e4565b91507fffffffffffffffffffffffffffffffffffffffffffffffffffffffffffffffff82141561137257611371611305565b5b600182019050919050565b7f536f6c6f20696c2070726f70726965746172696f2070756f272061676769756e60008201527f676572652066756e7a696f6e6172690000000000000000000000000000000000602082015250565b60006113d9602f83610bb7565b91506113e48261137d565b604082019050919050565b60006020820190508181036000830152611408816113cc565b9050919050565b7f536f6c6f20756e2066756e7a696f6e617265206f707075726520756e206f776e60008201527f657220706f73736f6e6f2073766f6c6765726520717565737461206f7065726160208201527f7a696f6e65000000000000000000000000000000000000000000000000000000604082015250565b6000611491604583610bb7565b915061149c8261140f565b606082019050919050565b600060208201905081810360008301526114c081611484565b9050919050565b600081905092915050565b60006114dd82610bac565b6114e781856114c7565b93506114f7818560208601610bc8565b80840191505092915050565b600061150f82866114d2565b915061151b82856114d2565b915061152782846114d2565b915081905094935050505056fea2646970667358221220eeeafa13ba5bb2d3ef6fcb8103d1a97e80c7f8d5d1c065942f573942e5ec4fdb64736f6c634300080b0033",
  "immutableReferences": {},
  "source": "// SPDX-License-Identifier: MIT\npragma solidity >=0.4.22 <0.9.0;\n\ncontract GestioneRuoli{\n\n     enum Negozio{ \n        CONAD,\n        CARREFOUR,\n        GS,\n        COOP,\n        TODIS,\n        INS,\n        PENNYS,\n        PEWEX,\n        LIDL,\n        PANORAMA\n    }\n// le enum sono numerato da 0 a n\n    enum Ruolo{\n        Funzionario,\n        Cliente\n    }\n\n    struct Funzionario{\n        address id;\n        Negozio negozio;\n    }\n\n    struct Cliente {\n        bytes32 id;\n        string nome;\n        string cognome;\n        string dataDiNascita;\n        string note;\n    }\n\n    struct Carta {\n        bytes32 id;\n        bytes32 cliente;\n        uint punti;\n        Negozio negozio;\n    }\n    \n\n    mapping(Ruolo => address[]) public ruoli;  //associa ad ogni ruolo una lista di indirizzi\n    mapping(address => Negozio) public negozio_funzionario;//associa un indirizzo (di un funzionario) a un negozio\n    mapping(address => Funzionario) public funzionari;//associa un indirizzo a un ruolo funzionario\n    mapping(bytes32 => Cliente) public clienti;//associa un indirizzo creato a un ruolo cliente\n\n\n    address admin; //chi fa il deploy del contratto  il proprietario, ci servir per gestire i permessi\n\n    constructor(){\n        admin = msg.sender;\n    }\n\n    function contains(address[] memory a, address x) public pure returns(bool){ //pure non modifica la blockchain, funzionale al codice\n        bool check = false;\n    \n        for (uint i=0; i < a.length; i++) {\n            if (x == a[i]) {\n                check = true;\n            }\n        }\n        return check;\n    }\n\n    function addFunzionario(address id, Negozio n) public onlyOwner{\n        Funzionario memory f = Funzionario(address(id), Negozio (n));\n        funzionari[id] = f;\n        ruoli[Ruolo.Funzionario].push(f.id);\n        negozio_funzionario[f.id] = n;\n    }\n\n    function addCliente(string memory nome, string memory cognome, string memory data_nascita) public onlyFunzionarioOrOwner returns(bytes32){\n        bytes32 ID = keccak256(abi.encodePacked(nome, cognome, data_nascita));\n        Cliente memory c = Cliente(ID, nome, cognome, data_nascita, \"null\");\n        clienti[c.id] = c;\n        return ID;\n    }\n\n    modifier onlyOwner{\n        require(msg.sender == admin, \"Solo il proprietario puo' aggiungere funzionari\");\n        _; //esegue il codice che viene dopo, forse\n    }\n\n\n    modifier onlyFunzionario{\n        require(contains(ruoli[Ruolo.Funzionario], msg.sender), \"Solo il funzionario puo' svolgere questa operazione\");\n        _;\n    }\n\n    modifier onlyFunzionarioOrOwner{\n        require(msg.sender == admin || contains(ruoli[Ruolo.Funzionario], msg.sender), \"Solo un funzionare oppure un owner possono svolgere questa operazione\");\n        _;\n    }\n\n\n    \n}",
  "sourcePath": "/home/missfoxy394/SDC/progetto_v4/contracts/GestioneRuoli.sol",
  "compiler": {
    "name": "solc",
    "version": "0.8.11+commit.d7f03943.Emscripten.clang"
  },
  "schemaVersion": "3.4.4",
  "updatedAt": "2022-02-11T10:20:11.012Z",
  "devdoc": {
    "kind": "dev",
    "methods": {},
    "version": 1
  },
  "userdoc": {
    "kind": "user",
    "methods": {},
    "version": 1
  }
}