{
  "contractName": "GestoreGenerale",
  "abi": [
    {
      "inputs": [
        {
          "internalType": "string",
          "name": "nome",
          "type": "string"
        },
        {
          "internalType": "string",
          "name": "cognome",
          "type": "string"
        },
        {
          "internalType": "string",
          "name": "data_nascita",
          "type": "string"
        }
      ],
      "name": "addCliente",
      "outputs": [
        {
          "internalType": "bytes32",
          "name": "",
          "type": "bytes32"
        }
      ],
      "stateMutability": "nonpayable",
      "type": "function"
    },
    {
      "inputs": [
        {
          "internalType": "address",
          "name": "id",
          "type": "address"
        },
        {
          "internalType": "enum GestioneRuoli.Negozio",
          "name": "n",
          "type": "uint8"
        }
      ],
      "name": "addFunzionario",
      "outputs": [],
      "stateMutability": "nonpayable",
      "type": "function"
    },
    {
      "inputs": [
        {
          "internalType": "bytes32",
          "name": "",
          "type": "bytes32"
        }
      ],
      "name": "carte",
      "outputs": [
        {
          "internalType": "bytes32",
          "name": "id",
          "type": "bytes32"
        },
        {
          "internalType": "bytes32",
          "name": "cliente",
          "type": "bytes32"
        },
        {
          "internalType": "uint256",
          "name": "punti",
          "type": "uint256"
        },
        {
          "internalType": "enum GestioneRuoli.Negozio",
          "name": "negozio",
          "type": "uint8"
        }
      ],
      "stateMutability": "view",
      "type": "function",
      "constant": true
    },
    {
      "inputs": [
        {
          "internalType": "bytes32",
          "name": "",
          "type": "bytes32"
        }
      ],
      "name": "clienti",
      "outputs": [
        {
          "internalType": "bytes32",
          "name": "id",
          "type": "bytes32"
        },
        {
          "internalType": "string",
          "name": "nome",
          "type": "string"
        },
        {
          "internalType": "string",
          "name": "cognome",
          "type": "string"
        },
        {
          "internalType": "string",
          "name": "dataDiNascita",
          "type": "string"
        },
        {
          "internalType": "string",
          "name": "note",
          "type": "string"
        }
      ],
      "stateMutability": "view",
      "type": "function",
      "constant": true
    },
    {
      "inputs": [
        {
          "internalType": "address[]",
          "name": "a",
          "type": "address[]"
        },
        {
          "internalType": "address",
          "name": "x",
          "type": "address"
        }
      ],
      "name": "contains",
      "outputs": [
        {
          "internalType": "bool",
          "name": "",
          "type": "bool"
        }
      ],
      "stateMutability": "pure",
      "type": "function",
      "constant": true
    },
    {
      "inputs": [
        {
          "internalType": "address",
          "name": "",
          "type": "address"
        }
      ],
      "name": "funzionari",
      "outputs": [
        {
          "internalType": "address",
          "name": "id",
          "type": "address"
        },
        {
          "internalType": "enum GestioneRuoli.Negozio",
          "name": "negozio",
          "type": "uint8"
        }
      ],
      "stateMutability": "view",
      "type": "function",
      "constant": true
    },
    {
      "inputs": [
        {
          "internalType": "address",
          "name": "",
          "type": "address"
        }
      ],
      "name": "negozio_funzionario",
      "outputs": [
        {
          "internalType": "enum GestioneRuoli.Negozio",
          "name": "",
          "type": "uint8"
        }
      ],
      "stateMutability": "view",
      "type": "function",
      "constant": true
    },
    {
      "inputs": [
        {
          "internalType": "enum GestioneRuoli.Ruolo",
          "name": "",
          "type": "uint8"
        },
        {
          "internalType": "uint256",
          "name": "",
          "type": "uint256"
        }
      ],
      "name": "ruoli",
      "outputs": [
        {
          "internalType": "address",
          "name": "",
          "type": "address"
        }
      ],
      "stateMutability": "view",
      "type": "function",
      "constant": true
    },
    {
      "inputs": [
        {
          "components": [
            {
              "internalType": "bytes32",
              "name": "id",
              "type": "bytes32"
            },
            {
              "internalType": "string",
              "name": "nome",
              "type": "string"
            },
            {
              "internalType": "string",
              "name": "cognome",
              "type": "string"
            },
            {
              "internalType": "string",
              "name": "dataDiNascita",
              "type": "string"
            },
            {
              "internalType": "string",
              "name": "note",
              "type": "string"
            }
          ],
          "internalType": "struct GestioneRuoli.Cliente",
          "name": "c",
          "type": "tuple"
        }
      ],
      "name": "addCarta",
      "outputs": [
        {
          "internalType": "bytes32",
          "name": "",
          "type": "bytes32"
        }
      ],
      "stateMutability": "nonpayable",
      "type": "function"
    },
    {
      "inputs": [
        {
          "internalType": "bytes32",
          "name": "id_carta",
          "type": "bytes32"
        },
        {
          "internalType": "uint256",
          "name": "numeroPunti",
          "type": "uint256"
        }
      ],
      "name": "addPunti",
      "outputs": [],
      "stateMutability": "nonpayable",
      "type": "function"
    },
    {
      "inputs": [
        {
          "internalType": "bytes32",
          "name": "id_carta",
          "type": "bytes32"
        },
        {
          "internalType": "uint256",
          "name": "numeroPunti",
          "type": "uint256"
        }
      ],
      "name": "removePunti",
      "outputs": [],
      "stateMutability": "nonpayable",
      "type": "function"
    },
    {
      "inputs": [
        {
          "internalType": "bytes32",
          "name": "id_carta",
          "type": "bytes32"
        }
      ],
      "name": "getPunti",
      "outputs": [
        {
          "internalType": "uint256",
          "name": "",
          "type": "uint256"
        }
      ],
      "stateMutability": "view",
      "type": "function",
      "constant": true
    },
    {
      "inputs": [
        {
          "internalType": "bytes32",
          "name": "id",
          "type": "bytes32"
        },
        {
          "internalType": "string",
          "name": "descrizione",
          "type": "string"
        }
      ],
      "name": "addNote",
      "outputs": [],
      "stateMutability": "nonpayable",
      "type": "function"
    },
    {
      "inputs": [
        {
          "internalType": "bytes32",
          "name": "id",
          "type": "bytes32"
        }
      ],
      "name": "azzeraPunti",
      "outputs": [],
      "stateMutability": "nonpayable",
      "type": "function"
    },
    {
      "inputs": [
        {
          "internalType": "bytes32",
          "name": "id_from",
          "type": "bytes32"
        },
        {
          "internalType": "bytes32",
          "name": "id_destinatario",
          "type": "bytes32"
        }
      ],
      "name": "movePunti",
      "outputs": [],
      "stateMutability": "nonpayable",
      "type": "function"
    },
    {
      "inputs": [
        {
          "internalType": "bytes32",
          "name": "id",
          "type": "bytes32"
        }
      ],
      "name": "deleteCarta",
      "outputs": [],
      "stateMutability": "nonpayable",
      "type": "function"
    },
    {
      "inputs": [
        {
          "internalType": "bytes32",
          "name": "id_cliente",
          "type": "bytes32"
        }
      ],
      "name": "deleteCliente",
      "outputs": [],
      "stateMutability": "nonpayable",
      "type": "function"
    }
  ],
  "bytecode": "0x608060405234801561001057600080fd5b5033600460006101000a81548173ffffffffffffffffffffffffffffffffffffffff021916908373ffffffffffffffffffffffffffffffffffffffff16021790555061292d806100616000396000f3fe608060405234801561001057600080fd5b506004361061010b5760003560e01c80636286b1cc116100a2578063830a1b5b11610071578063830a1b5b146102f1578063832f5119146103215780638d5050191461033d578063c390383b14610359578063ecd871aa146103755761010b565b80636286b1cc146102595780636ce1b19c146102755780636e21b8c314610291578063732783d2146102c15761010b565b80634522a1b6116100de5780634522a1b6146101ac5780634851f538146101dd57806353b76d5a1461020d57806358e2a2271461023d5761010b565b80631bce4f0d146101105780631e3ffc471461012c5780633da80d66146101605780633f97678814610190575b600080fd5b61012a60048036038101906101259190611be2565b6103a8565b005b61014660048036038101906101419190611c22565b610534565b604051610157959493929190611cf7565b60405180910390f35b61017a60048036038101906101759190611f0c565b61078a565b6040516101879190611f83565b60405180910390f35b6101aa60048036038101906101a59190611c22565b61080e565b005b6101c660048036038101906101c19190611f9e565b6109ae565b6040516101d4929190612051565b60405180910390f35b6101f760048036038101906101f29190612235565b6109ff565b604051610204919061227e565b60405180910390f35b61022760048036038101906102229190611f9e565b610c99565b6040516102349190612299565b60405180910390f35b610257600480360381019061025291906122d9565b610cb9565b005b610273600480360381019061026e9190611be2565b610f4f565b005b61028f600480360381019061028a9190611c22565b6110db565b005b6102ab60048036038101906102a69190611c22565b611255565b6040516102b89190612328565b60405180910390f35b6102db60048036038101906102d69190612343565b611275565b6040516102e8919061227e565b60405180910390f35b61030b6004803603810190610306919061240f565b611506565b604051610318919061244f565b60405180910390f35b61033b6004803603810190610336919061246a565b611554565b005b610357600480360381019061035291906124aa565b6116fc565b005b610373600480360381019061036e9190611c22565b611886565b005b61038f600480360381019061038a9190611c22565b611a42565b60405161039f9493929190612506565b60405180910390f35b600460009054906101000a900473ffffffffffffffffffffffffffffffffffffffff1673ffffffffffffffffffffffffffffffffffffffff163373ffffffffffffffffffffffffffffffffffffffff1614806104c457506104c360008080600181111561041857610417611fda565b5b600181111561042a57610429611fda565b5b81526020019081526020016000208054806020026020016040519081016040528092919081815260200182805480156104b857602002820191906000526020600020905b8160009054906101000a900473ffffffffffffffffffffffffffffffffffffffff1673ffffffffffffffffffffffffffffffffffffffff168152602001906001019080831161046e575b50505050503361078a565b5b610503576040517f08c379a00000000000000000000000000000000000000000000000000000000081526004016104fa906125e3565b60405180910390fd5b806005600084815260200190815260200160002060020160008282546105299190612632565b925050819055505050565b600360205280600052604060002060009150905080600001549080600101805461055d90612695565b80601f016020809104026020016040519081016040528092919081815260200182805461058990612695565b80156105d65780601f106105ab576101008083540402835291602001916105d6565b820191906000526020600020905b8154815290600101906020018083116105b957829003601f168201915b5050505050908060020180546105eb90612695565b80601f016020809104026020016040519081016040528092919081815260200182805461061790612695565b80156106645780601f1061063957610100808354040283529160200191610664565b820191906000526020600020905b81548152906001019060200180831161064757829003601f168201915b50505050509080600301805461067990612695565b80601f01602080910402602001604051908101604052809291908181526020018280546106a590612695565b80156106f25780601f106106c7576101008083540402835291602001916106f2565b820191906000526020600020905b8154815290600101906020018083116106d557829003601f168201915b50505050509080600401805461070790612695565b80601f016020809104026020016040519081016040528092919081815260200182805461073390612695565b80156107805780601f1061075557610100808354040283529160200191610780565b820191906000526020600020905b81548152906001019060200180831161076357829003601f168201915b5050505050905085565b6000806000905060005b8451811015610803578481815181106107b0576107af6126c7565b5b602002602001015173ffffffffffffffffffffffffffffffffffffffff168473ffffffffffffffffffffffffffffffffffffffff1614156107f057600191505b80806107fb906126f6565b915050610794565b508091505092915050565b600460009054906101000a900473ffffffffffffffffffffffffffffffffffffffff1673ffffffffffffffffffffffffffffffffffffffff163373ffffffffffffffffffffffffffffffffffffffff16148061092a575061092960008080600181111561087e5761087d611fda565b5b60018111156108905761088f611fda565b5b815260200190815260200160002080548060200260200160405190810160405280929190818152602001828054801561091e57602002820191906000526020600020905b8160009054906101000a900473ffffffffffffffffffffffffffffffffffffffff1673ffffffffffffffffffffffffffffffffffffffff16815260200190600101908083116108d4575b50505050503361078a565b5b610969576040517f08c379a0000000000000000000000000000000000000000000000000000000008152600401610960906125e3565b60405180910390fd5b60056000828152602001908152602001600020600080820160009055600182016000905560028201600090556003820160006101000a81549060ff0219169055505050565b60026020528060005260406000206000915090508060000160009054906101000a900473ffffffffffffffffffffffffffffffffffffffff16908060000160149054906101000a900460ff16905082565b6000600460009054906101000a900473ffffffffffffffffffffffffffffffffffffffff1673ffffffffffffffffffffffffffffffffffffffff163373ffffffffffffffffffffffffffffffffffffffff161480610b1d5750610b1c600080806001811115610a7157610a70611fda565b5b6001811115610a8357610a82611fda565b5b8152602001908152602001600020805480602002602001604051908101604052809291908181526020018280548015610b1157602002820191906000526020600020905b8160009054906101000a900473ffffffffffffffffffffffffffffffffffffffff1673ffffffffffffffffffffffffffffffffffffffff1681526020019060010190808311610ac7575b50505050503361078a565b5b610b5c576040517f08c379a0000000000000000000000000000000000000000000000000000000008152600401610b53906125e3565b60405180910390fd5b6000429050600083602001518460400151856060015184604051602001610b86949392919061279c565b604051602081830303815290604052805190602001209050600060405180608001604052808381526020018660000151815260200160008152602001600260003373ffffffffffffffffffffffffffffffffffffffff1673ffffffffffffffffffffffffffffffffffffffff16815260200190815260200160002060000160149054906101000a900460ff166009811115610c2457610c23611fda565b5b8152509050806005600084815260200190815260200160002060008201518160000155602082015181600101556040820151816002015560608201518160030160006101000a81548160ff02191690836009811115610c8657610c85611fda565b5b0217905550905050819350505050919050565b60016020528060005260406000206000915054906101000a900460ff1681565b600460009054906101000a900473ffffffffffffffffffffffffffffffffffffffff1673ffffffffffffffffffffffffffffffffffffffff163373ffffffffffffffffffffffffffffffffffffffff1614610d49576040517f08c379a0000000000000000000000000000000000000000000000000000000008152600401610d4090612850565b60405180910390fd5b600060405180604001604052808473ffffffffffffffffffffffffffffffffffffffff168152602001836009811115610d8557610d84611fda565b5b815250905080600260008573ffffffffffffffffffffffffffffffffffffffff1673ffffffffffffffffffffffffffffffffffffffff16815260200190815260200160002060008201518160000160006101000a81548173ffffffffffffffffffffffffffffffffffffffff021916908373ffffffffffffffffffffffffffffffffffffffff16021790555060208201518160000160146101000a81548160ff02191690836009811115610e3c57610e3b611fda565b5b0217905550905050600080806001811115610e5a57610e59611fda565b5b6001811115610e6c57610e6b611fda565b5b815260200190815260200160002081600001519080600181540180825580915050600190039060005260206000200160009091909190916101000a81548173ffffffffffffffffffffffffffffffffffffffff021916908373ffffffffffffffffffffffffffffffffffffffff1602179055508160016000836000015173ffffffffffffffffffffffffffffffffffffffff1673ffffffffffffffffffffffffffffffffffffffff16815260200190815260200160002060006101000a81548160ff02191690836009811115610f4557610f44611fda565b5b0217905550505050565b600460009054906101000a900473ffffffffffffffffffffffffffffffffffffffff1673ffffffffffffffffffffffffffffffffffffffff163373ffffffffffffffffffffffffffffffffffffffff16148061106b575061106a600080806001811115610fbf57610fbe611fda565b5b6001811115610fd157610fd0611fda565b5b815260200190815260200160002080548060200260200160405190810160405280929190818152602001828054801561105f57602002820191906000526020600020905b8160009054906101000a900473ffffffffffffffffffffffffffffffffffffffff1673ffffffffffffffffffffffffffffffffffffffff1681526020019060010190808311611015575b50505050503361078a565b5b6110aa576040517f08c379a00000000000000000000000000000000000000000000000000000000081526004016110a1906125e3565b60405180910390fd5b806005600084815260200190815260200160002060020160008282546110d09190612870565b925050819055505050565b600460009054906101000a900473ffffffffffffffffffffffffffffffffffffffff1673ffffffffffffffffffffffffffffffffffffffff163373ffffffffffffffffffffffffffffffffffffffff1614806111f757506111f660008080600181111561114b5761114a611fda565b5b600181111561115d5761115c611fda565b5b81526020019081526020016000208054806020026020016040519081016040528092919081815260200182805480156111eb57602002820191906000526020600020905b8160009054906101000a900473ffffffffffffffffffffffffffffffffffffffff1673ffffffffffffffffffffffffffffffffffffffff16815260200190600101908083116111a1575b50505050503361078a565b5b611236576040517f08c379a000000000000000000000000000000000000000000000000000000000815260040161122d906125e3565b60405180910390fd5b6000600560008381526020019081526020016000206002018190555050565b600060056000838152602001908152602001600020600201549050919050565b6000600460009054906101000a900473ffffffffffffffffffffffffffffffffffffffff1673ffffffffffffffffffffffffffffffffffffffff163373ffffffffffffffffffffffffffffffffffffffff16148061139357506113926000808060018111156112e7576112e6611fda565b5b60018111156112f9576112f8611fda565b5b815260200190815260200160002080548060200260200160405190810160405280929190818152602001828054801561138757602002820191906000526020600020905b8160009054906101000a900473ffffffffffffffffffffffffffffffffffffffff1673ffffffffffffffffffffffffffffffffffffffff168152602001906001019080831161133d575b50505050503361078a565b5b6113d2576040517f08c379a00000000000000000000000000000000000000000000000000000000081526004016113c9906125e3565b60405180910390fd5b60008484846040516020016113e9939291906128c6565b60405160208183030381529060405280519060200120905060006040518060a001604052808381526020018781526020018681526020018581526020016040518060400160405280600481526020017f6e756c6c00000000000000000000000000000000000000000000000000000000815250815250905080600360008360000151815260200190815260200160002060008201518160000155602082015181600101908051906020019061149f929190611a7f565b5060408201518160020190805190602001906114bc929190611a7f565b5060608201518160030190805190602001906114d9929190611a7f565b5060808201518160040190805190602001906114f6929190611a7f565b5090505081925050509392505050565b6000602052816000526040600020818154811061152257600080fd5b906000526020600020016000915091509054906101000a900473ffffffffffffffffffffffffffffffffffffffff1681565b600460009054906101000a900473ffffffffffffffffffffffffffffffffffffffff1673ffffffffffffffffffffffffffffffffffffffff163373ffffffffffffffffffffffffffffffffffffffff161480611670575061166f6000808060018111156115c4576115c3611fda565b5b60018111156115d6576115d5611fda565b5b815260200190815260200160002080548060200260200160405190810160405280929190818152602001828054801561166457602002820191906000526020600020905b8160009054906101000a900473ffffffffffffffffffffffffffffffffffffffff1673ffffffffffffffffffffffffffffffffffffffff168152602001906001019080831161161a575b50505050503361078a565b5b6116af576040517f08c379a00000000000000000000000000000000000000000000000000000000081526004016116a6906125e3565b60405180910390fd5b600060056000848152602001908152602001600020600201549050806005600084815260200190815260200160002060020160008282546116f09190612870565b92505081905550505050565b600460009054906101000a900473ffffffffffffffffffffffffffffffffffffffff1673ffffffffffffffffffffffffffffffffffffffff163373ffffffffffffffffffffffffffffffffffffffff161480611818575061181760008080600181111561176c5761176b611fda565b5b600181111561177e5761177d611fda565b5b815260200190815260200160002080548060200260200160405190810160405280929190818152602001828054801561180c57602002820191906000526020600020905b8160009054906101000a900473ffffffffffffffffffffffffffffffffffffffff1673ffffffffffffffffffffffffffffffffffffffff16815260200190600101908083116117c2575b50505050503361078a565b5b611857576040517f08c379a000000000000000000000000000000000000000000000000000000000815260040161184e906125e3565b60405180910390fd5b80600360008481526020019081526020016000206004019080519060200190611881929190611a7f565b505050565b600460009054906101000a900473ffffffffffffffffffffffffffffffffffffffff1673ffffffffffffffffffffffffffffffffffffffff163373ffffffffffffffffffffffffffffffffffffffff1614806119a257506119a16000808060018111156118f6576118f5611fda565b5b600181111561190857611907611fda565b5b815260200190815260200160002080548060200260200160405190810160405280929190818152602001828054801561199657602002820191906000526020600020905b8160009054906101000a900473ffffffffffffffffffffffffffffffffffffffff1673ffffffffffffffffffffffffffffffffffffffff168152602001906001019080831161194c575b50505050503361078a565b5b6119e1576040517f08c379a00000000000000000000000000000000000000000000000000000000081526004016119d8906125e3565b60405180910390fd5b60036000828152602001908152602001600020600080820160009055600182016000611a0d9190611b05565b600282016000611a1d9190611b05565b600382016000611a2d9190611b05565b600482016000611a3d9190611b05565b505050565b60056020528060005260406000206000915090508060000154908060010154908060020154908060030160009054906101000a900460ff16905084565b828054611a8b90612695565b90600052602060002090601f016020900481019282611aad5760008555611af4565b82601f10611ac657805160ff1916838001178555611af4565b82800160010185558215611af4579182015b82811115611af3578251825591602001919060010190611ad8565b5b509050611b019190611b45565b5090565b508054611b1190612695565b6000825580601f10611b235750611b42565b601f016020900490600052602060002090810190611b419190611b45565b5b50565b5b80821115611b5e576000816000905550600101611b46565b5090565b6000604051905090565b600080fd5b600080fd5b6000819050919050565b611b8981611b76565b8114611b9457600080fd5b50565b600081359050611ba681611b80565b92915050565b6000819050919050565b611bbf81611bac565b8114611bca57600080fd5b50565b600081359050611bdc81611bb6565b92915050565b60008060408385031215611bf957611bf8611b6c565b5b6000611c0785828601611b97565b9250506020611c1885828601611bcd565b9150509250929050565b600060208284031215611c3857611c37611b6c565b5b6000611c4684828501611b97565b91505092915050565b611c5881611b76565b82525050565b600081519050919050565b600082825260208201905092915050565b60005b83811015611c98578082015181840152602081019050611c7d565b83811115611ca7576000848401525b50505050565b6000601f19601f8301169050919050565b6000611cc982611c5e565b611cd38185611c69565b9350611ce3818560208601611c7a565b611cec81611cad565b840191505092915050565b600060a082019050611d0c6000830188611c4f565b8181036020830152611d1e8187611cbe565b90508181036040830152611d328186611cbe565b90508181036060830152611d468185611cbe565b90508181036080830152611d5a8184611cbe565b90509695505050505050565b600080fd5b7f4e487b7100000000000000000000000000000000000000000000000000000000600052604160045260246000fd5b611da382611cad565b810181811067ffffffffffffffff82111715611dc257611dc1611d6b565b5b80604052505050565b6000611dd5611b62565b9050611de18282611d9a565b919050565b600067ffffffffffffffff821115611e0157611e00611d6b565b5b602082029050602081019050919050565b600080fd5b600073ffffffffffffffffffffffffffffffffffffffff82169050919050565b6000611e4282611e17565b9050919050565b611e5281611e37565b8114611e5d57600080fd5b50565b600081359050611e6f81611e49565b92915050565b6000611e88611e8384611de6565b611dcb565b90508083825260208201905060208402830185811115611eab57611eaa611e12565b5b835b81811015611ed45780611ec08882611e60565b845260208401935050602081019050611ead565b5050509392505050565b600082601f830112611ef357611ef2611d66565b5b8135611f03848260208601611e75565b91505092915050565b60008060408385031215611f2357611f22611b6c565b5b600083013567ffffffffffffffff811115611f4157611f40611b71565b5b611f4d85828601611ede565b9250506020611f5e85828601611e60565b9150509250929050565b60008115159050919050565b611f7d81611f68565b82525050565b6000602082019050611f986000830184611f74565b92915050565b600060208284031215611fb457611fb3611b6c565b5b6000611fc284828501611e60565b91505092915050565b611fd481611e37565b82525050565b7f4e487b7100000000000000000000000000000000000000000000000000000000600052602160045260246000fd5b600a811061201a57612019611fda565b5b50565b600081905061202b82612009565b919050565b600061203b8261201d565b9050919050565b61204b81612030565b82525050565b60006040820190506120666000830185611fcb565b6120736020830184612042565b9392505050565b600080fd5b600080fd5b600080fd5b600067ffffffffffffffff8211156120a4576120a3611d6b565b5b6120ad82611cad565b9050602081019050919050565b82818337600083830152505050565b60006120dc6120d784612089565b611dcb565b9050828152602081018484840111156120f8576120f7612084565b5b6121038482856120ba565b509392505050565b600082601f8301126121205761211f611d66565b5b81356121308482602086016120c9565b91505092915050565b600060a0828403121561214f5761214e61207a565b5b61215960a0611dcb565b9050600061216984828501611b97565b600083015250602082013567ffffffffffffffff81111561218d5761218c61207f565b5b6121998482850161210b565b602083015250604082013567ffffffffffffffff8111156121bd576121bc61207f565b5b6121c98482850161210b565b604083015250606082013567ffffffffffffffff8111156121ed576121ec61207f565b5b6121f98482850161210b565b606083015250608082013567ffffffffffffffff81111561221d5761221c61207f565b5b6122298482850161210b565b60808301525092915050565b60006020828403121561224b5761224a611b6c565b5b600082013567ffffffffffffffff81111561226957612268611b71565b5b61227584828501612139565b91505092915050565b60006020820190506122936000830184611c4f565b92915050565b60006020820190506122ae6000830184612042565b92915050565b600a81106122c157600080fd5b50565b6000813590506122d3816122b4565b92915050565b600080604083850312156122f0576122ef611b6c565b5b60006122fe85828601611e60565b925050602061230f858286016122c4565b9150509250929050565b61232281611bac565b82525050565b600060208201905061233d6000830184612319565b92915050565b60008060006060848603121561235c5761235b611b6c565b5b600084013567ffffffffffffffff81111561237a57612379611b71565b5b6123868682870161210b565b935050602084013567ffffffffffffffff8111156123a7576123a6611b71565b5b6123b38682870161210b565b925050604084013567ffffffffffffffff8111156123d4576123d3611b71565b5b6123e08682870161210b565b9150509250925092565b600281106123f757600080fd5b50565b600081359050612409816123ea565b92915050565b6000806040838503121561242657612425611b6c565b5b6000612434858286016123fa565b925050602061244585828601611bcd565b9150509250929050565b60006020820190506124646000830184611fcb565b92915050565b6000806040838503121561248157612480611b6c565b5b600061248f85828601611b97565b92505060206124a085828601611b97565b9150509250929050565b600080604083850312156124c1576124c0611b6c565b5b60006124cf85828601611b97565b925050602083013567ffffffffffffffff8111156124f0576124ef611b71565b5b6124fc8582860161210b565b9150509250929050565b600060808201905061251b6000830187611c4f565b6125286020830186611c4f565b6125356040830185612319565b6125426060830184612042565b95945050505050565b7f536f6c6f20756e2066756e7a696f6e617265206f707075726520756e206f776e60008201527f657220706f73736f6e6f2073766f6c6765726520717565737461206f7065726160208201527f7a696f6e65000000000000000000000000000000000000000000000000000000604082015250565b60006125cd604583611c69565b91506125d88261254b565b606082019050919050565b600060208201905081810360008301526125fc816125c0565b9050919050565b7f4e487b7100000000000000000000000000000000000000000000000000000000600052601160045260246000fd5b600061263d82611bac565b915061264883611bac565b92508282101561265b5761265a612603565b5b828203905092915050565b7f4e487b7100000000000000000000000000000000000000000000000000000000600052602260045260246000fd5b600060028204905060018216806126ad57607f821691505b602082108114156126c1576126c0612666565b5b50919050565b7f4e487b7100000000000000000000000000000000000000000000000000000000600052603260045260246000fd5b600061270182611bac565b91507fffffffffffffffffffffffffffffffffffffffffffffffffffffffffffffffff82141561273457612733612603565b5b600182019050919050565b600081905092915050565b600061275582611c5e565b61275f818561273f565b935061276f818560208601611c7a565b80840191505092915050565b6000819050919050565b61279661279182611bac565b61277b565b82525050565b60006127a8828761274a565b91506127b4828661274a565b91506127c0828561274a565b91506127cc8284612785565b60208201915081905095945050505050565b7f536f6c6f20696c2070726f70726965746172696f2070756f272061676769756e60008201527f676572652066756e7a696f6e6172690000000000000000000000000000000000602082015250565b600061283a602f83611c69565b9150612845826127de565b604082019050919050565b600060208201905081810360008301526128698161282d565b9050919050565b600061287b82611bac565b915061288683611bac565b9250827fffffffffffffffffffffffffffffffffffffffffffffffffffffffffffffffff038211156128bb576128ba612603565b5b828201905092915050565b60006128d2828661274a565b91506128de828561274a565b91506128ea828461274a565b915081905094935050505056fea2646970667358221220166661982a039ddabf066e5af4597788c8b223773e65aa899f89b4965b92d44564736f6c634300080b0033",
  "immutableReferences": {},
  "source": "// SPDX-License-Identifier: MIT\npragma solidity >=0.4.22 <0.9.0;\n\nimport \"./GestioneRuoli.sol\";\n\n/**\n* @title GestoreGenerale\n* @author Gabriele Benedetti, Giulia Pascale \n* @notice Contratto che offre strumenti utili per la gestione di tessere per la raccolta punti di supermercati e negozi\n*/\ncontract GestoreGenerale is GestioneRuoli{\n\n    \n    //mapping(bytes32 => mapping(bytes32 => Carta)) public listaCarte_clienti; //\n    mapping(bytes32 => Carta) public carte;\n\n    function addCarta(Cliente memory c) public onlyFunzionarioOrOwner returns(bytes32) {\n        uint date = block.timestamp;\n        bytes32 ID = keccak256(abi.encodePacked(c.nome, c.cognome, c.dataDiNascita, date));\n        Carta memory i = Carta(ID, c.id, 0, funzionari[msg.sender].negozio);\n        //listaCarte_clienti[c.id][ID] = i;\n        carte[ID] = i;\n        return ID;\n    }\n\n    function addPunti(bytes32 id_carta, uint numeroPunti) public onlyFunzionarioOrOwner{\n        carte[id_carta].punti += numeroPunti;\n        //listaCarte_clienti[id_cliente][id_carta].punti += numeroPunti;\n    }\n\n    function removePunti(bytes32 id_carta, uint numeroPunti) public onlyFunzionarioOrOwner{\n        //listaCarte_clienti[id_cliente][id_carta].punti -= numeroPunti;\n        carte[id_carta].punti -= numeroPunti;\n    }\n\n    function getPunti(bytes32 id_carta) public view returns(uint){\n        return carte[id_carta].punti;\n        //return listaCarte_clienti[id_cliente][id_carta].punti;\n    }\n\n\n    //Prende in input una carstringa e la inserisce nei dati di un cliente. Utile qualora si dovesse inserire notazioni su un cliente che ha avuto problemi con la carta o il negozio\n    function addNote(bytes32 id, string memory descrizione) public onlyFunzionarioOrOwner{\n        clienti[id].note = descrizione;\n    }\n\n    //Prende in input una carta e ne azzera i punti\n    function azzeraPunti(bytes32 id) public onlyFunzionarioOrOwner{\n        carte[id].punti = 0;\n    }\n\n    //Prende in input due carte e trasferisce i punti da una alla seconda. (Es: carta smagnetizzata, ne occorre fare una nuova)\n    function movePunti(bytes32 id_from, bytes32 id_destinatario) public onlyFunzionarioOrOwner{\n        uint ammontare = carte[id_from].punti;\n        carte[id_destinatario].punti += ammontare;\n    }\n\n    //Dato in input un id di una carta, la cancella\n    function deleteCarta(bytes32 id) public onlyFunzionarioOrOwner{\n        delete carte[id];\n    }\n\n    //Dato in input un id di una carta, la cancella\n    function deleteCliente(bytes32 id_cliente) public onlyFunzionarioOrOwner{\n        delete clienti[id_cliente];\n    }\n\n}\n\n\n",
  "sourcePath": "/home/missfoxy394/SDC/progetto_v4/contracts/GestoreGenerale.sol",
  "compiler": {
    "name": "solc",
    "version": "0.8.11+commit.d7f03943.Emscripten.clang"
  },
  "schemaVersion": "3.4.4",
  "updatedAt": "2022-02-11T10:21:26.764Z",
  "networkType": "ethereum",
  "devdoc": {
    "author": "Gabriele Benedetti, Giulia Pascale ",
    "kind": "dev",
    "methods": {},
    "title": "GestoreGenerale",
    "version": 1
  },
  "userdoc": {
    "kind": "user",
    "methods": {},
    "notice": "Contratto che offre strumenti utili per la gestione di tessere per la raccolta punti di supermercati e negozi",
    "version": 1
  }
}