{
  "contractName": "GestoreGenerale",
  "abi": [
    {
      "anonymous": false,
      "inputs": [
        {
          "indexed": false,
          "internalType": "bytes32",
          "name": "id",
          "type": "bytes32"
        },
        {
          "indexed": false,
          "internalType": "bytes32",
          "name": "id_cliente",
          "type": "bytes32"
        }
      ],
      "name": "NuovaCarta",
      "type": "event"
    },
    {
      "anonymous": false,
      "inputs": [
        {
          "indexed": false,
          "internalType": "bytes32",
          "name": "id",
          "type": "bytes32"
        },
        {
          "indexed": false,
          "internalType": "string",
          "name": "nome",
          "type": "string"
        },
        {
          "indexed": false,
          "internalType": "string",
          "name": "cognome",
          "type": "string"
        },
        {
          "indexed": false,
          "internalType": "string",
          "name": "dataDiNascita",
          "type": "string"
        }
      ],
      "name": "NuovoCliente",
      "type": "event"
    },
    {
      "inputs": [
        {
          "internalType": "string",
          "name": "nome",
          "type": "string"
        },
        {
          "internalType": "string",
          "name": "cognome",
          "type": "string"
        },
        {
          "internalType": "string",
          "name": "data_nascita",
          "type": "string"
        }
      ],
      "name": "addCliente",
      "outputs": [
        {
          "internalType": "bytes32",
          "name": "",
          "type": "bytes32"
        }
      ],
      "stateMutability": "nonpayable",
      "type": "function"
    },
    {
      "inputs": [
        {
          "internalType": "address",
          "name": "id",
          "type": "address"
        },
        {
          "internalType": "enum GestioneRuoli.Negozio",
          "name": "n",
          "type": "uint8"
        }
      ],
      "name": "addFunzionario",
      "outputs": [],
      "stateMutability": "nonpayable",
      "type": "function"
    },
    {
      "inputs": [
        {
          "internalType": "bytes32",
          "name": "",
          "type": "bytes32"
        }
      ],
      "name": "carte",
      "outputs": [
        {
          "internalType": "bytes32",
          "name": "id",
          "type": "bytes32"
        },
        {
          "internalType": "bytes32",
          "name": "cliente",
          "type": "bytes32"
        },
        {
          "internalType": "uint256",
          "name": "punti",
          "type": "uint256"
        },
        {
          "internalType": "enum GestioneRuoli.Negozio",
          "name": "negozio",
          "type": "uint8"
        }
      ],
      "stateMutability": "view",
      "type": "function",
      "constant": true
    },
    {
      "inputs": [
        {
          "internalType": "bytes32",
          "name": "",
          "type": "bytes32"
        }
      ],
      "name": "clienti",
      "outputs": [
        {
          "internalType": "bytes32",
          "name": "id",
          "type": "bytes32"
        },
        {
          "internalType": "string",
          "name": "nome",
          "type": "string"
        },
        {
          "internalType": "string",
          "name": "cognome",
          "type": "string"
        },
        {
          "internalType": "string",
          "name": "dataDiNascita",
          "type": "string"
        },
        {
          "internalType": "string",
          "name": "note",
          "type": "string"
        }
      ],
      "stateMutability": "view",
      "type": "function",
      "constant": true
    },
    {
      "inputs": [
        {
          "internalType": "bytes32",
          "name": "",
          "type": "bytes32"
        }
      ],
      "name": "consorzi",
      "outputs": [
        {
          "internalType": "bytes32",
          "name": "id",
          "type": "bytes32"
        },
        {
          "internalType": "string",
          "name": "nome",
          "type": "string"
        }
      ],
      "stateMutability": "view",
      "type": "function",
      "constant": true
    },
    {
      "inputs": [
        {
          "internalType": "enum GestioneRuoli.Negozio",
          "name": "",
          "type": "uint8"
        }
      ],
      "name": "consorzioNegozi",
      "outputs": [
        {
          "internalType": "bytes32",
          "name": "",
          "type": "bytes32"
        }
      ],
      "stateMutability": "view",
      "type": "function",
      "constant": true
    },
    {
      "inputs": [
        {
          "internalType": "address[]",
          "name": "a",
          "type": "address[]"
        },
        {
          "internalType": "address",
          "name": "x",
          "type": "address"
        }
      ],
      "name": "contains",
      "outputs": [
        {
          "internalType": "bool",
          "name": "",
          "type": "bool"
        }
      ],
      "stateMutability": "pure",
      "type": "function",
      "constant": true
    },
    {
      "inputs": [
        {
          "internalType": "address",
          "name": "",
          "type": "address"
        }
      ],
      "name": "funzionari",
      "outputs": [
        {
          "internalType": "address",
          "name": "id",
          "type": "address"
        },
        {
          "internalType": "enum GestioneRuoli.Negozio",
          "name": "negozio",
          "type": "uint8"
        }
      ],
      "stateMutability": "view",
      "type": "function",
      "constant": true
    },
    {
      "inputs": [
        {
          "internalType": "address",
          "name": "",
          "type": "address"
        }
      ],
      "name": "negozio_funzionario",
      "outputs": [
        {
          "internalType": "enum GestioneRuoli.Negozio",
          "name": "",
          "type": "uint8"
        }
      ],
      "stateMutability": "view",
      "type": "function",
      "constant": true
    },
    {
      "inputs": [
        {
          "internalType": "enum GestioneRuoli.Ruolo",
          "name": "",
          "type": "uint8"
        },
        {
          "internalType": "uint256",
          "name": "",
          "type": "uint256"
        }
      ],
      "name": "ruoli",
      "outputs": [
        {
          "internalType": "address",
          "name": "",
          "type": "address"
        }
      ],
      "stateMutability": "view",
      "type": "function",
      "constant": true
    },
    {
      "inputs": [
        {
          "components": [
            {
              "internalType": "bytes32",
              "name": "id",
              "type": "bytes32"
            },
            {
              "internalType": "string",
              "name": "nome",
              "type": "string"
            },
            {
              "internalType": "string",
              "name": "cognome",
              "type": "string"
            },
            {
              "internalType": "string",
              "name": "dataDiNascita",
              "type": "string"
            },
            {
              "internalType": "string",
              "name": "note",
              "type": "string"
            }
          ],
          "internalType": "struct GestioneRuoli.Cliente",
          "name": "c",
          "type": "tuple"
        }
      ],
      "name": "addCarta",
      "outputs": [
        {
          "internalType": "bytes32",
          "name": "",
          "type": "bytes32"
        }
      ],
      "stateMutability": "nonpayable",
      "type": "function"
    },
    {
      "inputs": [
        {
          "internalType": "bytes32",
          "name": "id_carta",
          "type": "bytes32"
        },
        {
          "internalType": "uint256",
          "name": "numeroPunti",
          "type": "uint256"
        }
      ],
      "name": "addPunti",
      "outputs": [],
      "stateMutability": "nonpayable",
      "type": "function"
    },
    {
      "inputs": [
        {
          "internalType": "bytes32",
          "name": "id_carta",
          "type": "bytes32"
        },
        {
          "internalType": "uint256",
          "name": "numeroPunti",
          "type": "uint256"
        }
      ],
      "name": "removePunti",
      "outputs": [],
      "stateMutability": "nonpayable",
      "type": "function"
    },
    {
      "inputs": [
        {
          "internalType": "bytes32",
          "name": "id_carta",
          "type": "bytes32"
        }
      ],
      "name": "getPunti",
      "outputs": [
        {
          "internalType": "uint256",
          "name": "",
          "type": "uint256"
        }
      ],
      "stateMutability": "view",
      "type": "function",
      "constant": true
    },
    {
      "inputs": [
        {
          "internalType": "bytes32",
          "name": "id",
          "type": "bytes32"
        },
        {
          "internalType": "string",
          "name": "notazione",
          "type": "string"
        }
      ],
      "name": "addNote",
      "outputs": [],
      "stateMutability": "nonpayable",
      "type": "function"
    },
    {
      "inputs": [
        {
          "internalType": "bytes32",
          "name": "id",
          "type": "bytes32"
        }
      ],
      "name": "azzeraPunti",
      "outputs": [],
      "stateMutability": "nonpayable",
      "type": "function"
    },
    {
      "inputs": [
        {
          "internalType": "bytes32",
          "name": "id_from",
          "type": "bytes32"
        },
        {
          "internalType": "bytes32",
          "name": "id_destinatario",
          "type": "bytes32"
        }
      ],
      "name": "movePunti",
      "outputs": [],
      "stateMutability": "nonpayable",
      "type": "function"
    },
    {
      "inputs": [
        {
          "internalType": "bytes32",
          "name": "id",
          "type": "bytes32"
        }
      ],
      "name": "deleteCarta",
      "outputs": [],
      "stateMutability": "nonpayable",
      "type": "function"
    },
    {
      "inputs": [
        {
          "internalType": "bytes32",
          "name": "id_cliente",
          "type": "bytes32"
        }
      ],
      "name": "deleteCliente",
      "outputs": [],
      "stateMutability": "nonpayable",
      "type": "function"
    },
    {
      "inputs": [
        {
          "internalType": "string",
          "name": "nome",
          "type": "string"
        }
      ],
      "name": "addConsorzio",
      "outputs": [],
      "stateMutability": "nonpayable",
      "type": "function"
    },
    {
      "inputs": [
        {
          "internalType": "enum GestioneRuoli.Negozio",
          "name": "negozio",
          "type": "uint8"
        },
        {
          "internalType": "bytes32",
          "name": "id_consorzio",
          "type": "bytes32"
        }
      ],
      "name": "addNegozioConsorzio",
      "outputs": [],
      "stateMutability": "nonpayable",
      "type": "function"
    },
    {
      "inputs": [
        {
          "internalType": "enum GestioneRuoli.Negozio",
          "name": "negozio",
          "type": "uint8"
        }
      ],
      "name": "removeNegozioConsorzio",
      "outputs": [],
      "stateMutability": "nonpayable",
      "type": "function"
    },
    {
      "inputs": [
        {
          "internalType": "bytes32",
          "name": "id_carta",
          "type": "bytes32"
        }
      ],
      "name": "checkAuthority",
      "outputs": [
        {
          "internalType": "bool",
          "name": "",
          "type": "bool"
        }
      ],
      "stateMutability": "view",
      "type": "function",
      "constant": true
    }
  ],
  "bytecode": "0x60806040523480156200001157600080fd5b5033600460006101000a81548173ffffffffffffffffffffffffffffffffffffffff021916908373ffffffffffffffffffffffffffffffffffffffff160217905550620000663360086200006c60201b60201c565b620003ec565b600460009054906101000a900473ffffffffffffffffffffffffffffffffffffffff1673ffffffffffffffffffffffffffffffffffffffff163373ffffffffffffffffffffffffffffffffffffffff1614620000ff576040517f08c379a0000000000000000000000000000000000000000000000000000000008152600401620000f6906200039b565b60405180910390fd5b600060405180604001604052808473ffffffffffffffffffffffffffffffffffffffff1681526020018360098111156200013e576200013d620003bd565b5b815250905080600260008573ffffffffffffffffffffffffffffffffffffffff1673ffffffffffffffffffffffffffffffffffffffff16815260200190815260200160002060008201518160000160006101000a81548173ffffffffffffffffffffffffffffffffffffffff021916908373ffffffffffffffffffffffffffffffffffffffff16021790555060208201518160000160146101000a81548160ff02191690836009811115620001f857620001f7620003bd565b5b0217905550905050600080806001811115620002195762000218620003bd565b5b60018111156200022e576200022d620003bd565b5b815260200190815260200160002081600001519080600181540180825580915050600190039060005260206000200160009091909190916101000a81548173ffffffffffffffffffffffffffffffffffffffff021916908373ffffffffffffffffffffffffffffffffffffffff1602179055508160016000836000015173ffffffffffffffffffffffffffffffffffffffff1673ffffffffffffffffffffffffffffffffffffffff16815260200190815260200160002060006101000a81548160ff021916908360098111156200030a5762000309620003bd565b5b0217905550505050565b600082825260208201905092915050565b7f536f6c6f20696c2070726f70726965746172696f2070756f272073766f6c676560008201527f726520717565737461206f706572617a696f6e65000000000000000000000000602082015250565b60006200038360348362000314565b9150620003908262000325565b604082019050919050565b60006020820190508181036000830152620003b68162000374565b9050919050565b7f4e487b7100000000000000000000000000000000000000000000000000000000600052602160045260246000fd5b612b7580620003fc6000396000f3fe608060405234801561001057600080fd5b506004361061014c5760003560e01c80636286b1cc116100c3578063830a1b5b1161007c578063830a1b5b146103e7578063832f5119146104175780638d50501914610433578063c390383b1461044f578063ecd871aa1461046b578063fae1b9551461049e5761014c565b80636286b1cc146103175780636aa6d281146103335780636ce1b19c1461034f5780636e21b8c31461036b578063732783d21461039b57806373f64efa146103cb5761014c565b80633da80d66116101155780633da80d661461021e5780633f9767881461024e5780634522a1b61461026a5780634851f5381461029b57806353b76d5a146102cb57806358e2a227146102fb5761014c565b8062febe34146101515780631bce4f0d1461016d5780631dcb19e1146101895780631e3ffc47146101b95780632799e96c146101ed575b600080fd5b61016b60048036038101906101669190611d84565b6104ce565b005b61018760048036038101906101829190611e39565b61060b565b005b6101a3600480360381019061019e9190611e79565b610652565b6040516101b09190611ec1565b60405180910390f35b6101d360048036038101906101ce9190611e79565b6107e9565b6040516101e4959493929190611f73565b60405180910390f35b61020760048036038101906102029190611e79565b610a3f565b604051610215929190611fe2565b60405180910390f35b61023860048036038101906102339190612138565b610aeb565b6040516102459190611ec1565b60405180910390f35b61026860048036038101906102639190611e79565b610b6f565b005b610284600480360381019061027f9190612194565b610bca565b604051610292929190612247565b60405180910390f35b6102b560048036038101906102b09190612376565b610c1b565b6040516102c291906123bf565b60405180910390f35b6102e560048036038101906102e09190612194565b610ef2565b6040516102f291906123da565b60405180910390f35b6103156004803603810190610310919061241a565b610f12565b005b610331600480360381019061032c9190611e39565b6111a8565b005b61034d6004803603810190610348919061245a565b6111ef565b005b61036960048036038101906103649190611e79565b6113f0565b005b61038560048036038101906103809190611e79565b611425565b6040516103929190612496565b60405180910390f35b6103b560048036038101906103b091906124b1565b611445565b6040516103c291906123bf565b60405180910390f35b6103e560048036038101906103e09190612558565b611713565b005b61040160048036038101906103fc91906125bd565b61184b565b60405161040e91906125fd565b60405180910390f35b610431600480360381019061042c9190612618565b611899565b005b61044d60048036038101906104489190612658565b611906565b005b61046960048036038101906104649190611e79565b61194b565b005b61048560048036038101906104809190611e79565b611a3c565b60405161049594939291906126b4565b60405180910390f35b6104b860048036038101906104b3919061245a565b611a79565b6040516104c591906123bf565b60405180910390f35b600460009054906101000a900473ffffffffffffffffffffffffffffffffffffffff1673ffffffffffffffffffffffffffffffffffffffff163373ffffffffffffffffffffffffffffffffffffffff161461055e576040517f08c379a00000000000000000000000000000000000000000000000000000000081526004016105559061276b565b60405180910390fd5b60008160405160200161057191906127c7565b60405160208183030381529060405280519060200120905060606000604051806060016040528084815260200185815260200183815250905080600760008581526020019081526020016000206000820151816000015560208201518160010190805190602001906105e4929190611a91565b506040820151816002019080519060200190610601929190611b17565b5090505050505050565b6001151561061883610652565b1515141561064e5780600560008481526020019081526020016000206002016000828254610646919061280d565b925050819055505b5050565b600080600660006005600086815260200190815260200160002060030160009054906101000a900460ff16600981111561068f5761068e6121d0565b5b60098111156106a1576106a06121d0565b5b8152602001908152602001600020549050600060066000600260003373ffffffffffffffffffffffffffffffffffffffff1673ffffffffffffffffffffffffffffffffffffffff16815260200190815260200160002060000160149054906101000a900460ff16600981111561071a576107196121d0565b5b600981111561072c5761072b6121d0565b5b8152602001908152602001600020549050600260003373ffffffffffffffffffffffffffffffffffffffff1673ffffffffffffffffffffffffffffffffffffffff16815260200190815260200160002060000160149054906101000a900460ff16600981111561079f5761079e6121d0565b5b6005600086815260200190815260200160002060030160009054906101000a900460ff1660098111156107d5576107d46121d0565b5b14806107e057508082145b92505050919050565b600360205280600052604060002060009150905080600001549080600101805461081290612870565b80601f016020809104026020016040519081016040528092919081815260200182805461083e90612870565b801561088b5780601f106108605761010080835404028352916020019161088b565b820191906000526020600020905b81548152906001019060200180831161086e57829003601f168201915b5050505050908060020180546108a090612870565b80601f01602080910402602001604051908101604052809291908181526020018280546108cc90612870565b80156109195780601f106108ee57610100808354040283529160200191610919565b820191906000526020600020905b8154815290600101906020018083116108fc57829003601f168201915b50505050509080600301805461092e90612870565b80601f016020809104026020016040519081016040528092919081815260200182805461095a90612870565b80156109a75780601f1061097c576101008083540402835291602001916109a7565b820191906000526020600020905b81548152906001019060200180831161098a57829003601f168201915b5050505050908060040180546109bc90612870565b80601f01602080910402602001604051908101604052809291908181526020018280546109e890612870565b8015610a355780601f10610a0a57610100808354040283529160200191610a35565b820191906000526020600020905b815481529060010190602001808311610a1857829003601f168201915b5050505050905085565b6007602052806000526040600020600091509050806000015490806001018054610a6890612870565b80601f0160208091040260200160405190810160405280929190818152602001828054610a9490612870565b8015610ae15780601f10610ab657610100808354040283529160200191610ae1565b820191906000526020600020905b815481529060010190602001808311610ac457829003601f168201915b5050505050905082565b6000806000905060005b8451811015610b6457848181518110610b1157610b106128a2565b5b602002602001015173ffffffffffffffffffffffffffffffffffffffff168473ffffffffffffffffffffffffffffffffffffffff161415610b5157600191505b8080610b5c906128d1565b915050610af5565b508091505092915050565b60011515610b7c82610652565b15151415610bc75760056000828152602001908152602001600020600080820160009055600182016000905560028201600090556003820160006101000a81549060ff021916905550505b50565b60026020528060005260406000206000915090508060000160009054906101000a900473ffffffffffffffffffffffffffffffffffffffff16908060000160149054906101000a900460ff16905082565b6000600460009054906101000a900473ffffffffffffffffffffffffffffffffffffffff1673ffffffffffffffffffffffffffffffffffffffff163373ffffffffffffffffffffffffffffffffffffffff161480610d395750610d38600080806001811115610c8d57610c8c6121d0565b5b6001811115610c9f57610c9e6121d0565b5b8152602001908152602001600020805480602002602001604051908101604052809291908181526020018280548015610d2d57602002820191906000526020600020905b8160009054906101000a900473ffffffffffffffffffffffffffffffffffffffff1673ffffffffffffffffffffffffffffffffffffffff1681526020019060010190808311610ce3575b505050505033610aeb565b5b610d78576040517f08c379a0000000000000000000000000000000000000000000000000000000008152600401610d6f906129b2565b60405180910390fd5b6000429050600083602001518460400151856060015184604051602001610da294939291906129f3565b604051602081830303815290604052805190602001209050600060405180608001604052808381526020018660000151815260200160008152602001600260003373ffffffffffffffffffffffffffffffffffffffff1673ffffffffffffffffffffffffffffffffffffffff16815260200190815260200160002060000160149054906101000a900460ff166009811115610e4057610e3f6121d0565b5b8152509050806005600084815260200190815260200160002060008201518160000155602082015181600101556040820151816002015560608201518160030160006101000a81548160ff02191690836009811115610ea257610ea16121d0565b5b02179055509050507fe7190113bbfb8bfbc768533903c287da50dbb0d32d4ade8ccbe5178b6afafa6d828660000151604051610edf929190612a35565b60405180910390a1819350505050919050565b60016020528060005260406000206000915054906101000a900460ff1681565b600460009054906101000a900473ffffffffffffffffffffffffffffffffffffffff1673ffffffffffffffffffffffffffffffffffffffff163373ffffffffffffffffffffffffffffffffffffffff1614610fa2576040517f08c379a0000000000000000000000000000000000000000000000000000000008152600401610f999061276b565b60405180910390fd5b600060405180604001604052808473ffffffffffffffffffffffffffffffffffffffff168152602001836009811115610fde57610fdd6121d0565b5b815250905080600260008573ffffffffffffffffffffffffffffffffffffffff1673ffffffffffffffffffffffffffffffffffffffff16815260200190815260200160002060008201518160000160006101000a81548173ffffffffffffffffffffffffffffffffffffffff021916908373ffffffffffffffffffffffffffffffffffffffff16021790555060208201518160000160146101000a81548160ff02191690836009811115611095576110946121d0565b5b02179055509050506000808060018111156110b3576110b26121d0565b5b60018111156110c5576110c46121d0565b5b815260200190815260200160002081600001519080600181540180825580915050600190039060005260206000200160009091909190916101000a81548173ffffffffffffffffffffffffffffffffffffffff021916908373ffffffffffffffffffffffffffffffffffffffff1602179055508160016000836000015173ffffffffffffffffffffffffffffffffffffffff1673ffffffffffffffffffffffffffffffffffffffff16815260200190815260200160002060006101000a81548160ff0219169083600981111561119e5761119d6121d0565b5b0217905550505050565b600115156111b583610652565b151514156111eb57806005600084815260200190815260200160002060020160008282546111e39190612a5e565b925050819055505b5050565b600460009054906101000a900473ffffffffffffffffffffffffffffffffffffffff1673ffffffffffffffffffffffffffffffffffffffff163373ffffffffffffffffffffffffffffffffffffffff161461127f576040517f08c379a00000000000000000000000000000000000000000000000000000000081526004016112769061276b565b60405180910390fd5b600060066000836009811115611298576112976121d0565b5b60098111156112aa576112a96121d0565b5b8152602001908152602001600020549050600660008360098111156112d2576112d16121d0565b5b60098111156112e4576112e36121d0565b5b81526020019081526020016000206000905560005b60076000838152602001908152602001600020600201805490508110156113eb5782600981111561132d5761132c6121d0565b5b600760008481526020019081526020016000206002018281548110611355576113546128a2565b5b90600052602060002090602091828204019190069054906101000a900460ff166009811115611387576113866121d0565b5b14156113d8576007600083815260200190815260200160002060020181815481106113b5576113b46128a2565b5b90600052602060002090602091828204019190066101000a81549060ff02191690555b80806113e3906128d1565b9150506112f9565b505050565b600115156113fd82610652565b1515141561142257600060056000838152602001908152602001600020600201819055505b50565b600060056000838152602001908152602001600020600201549050919050565b6000600460009054906101000a900473ffffffffffffffffffffffffffffffffffffffff1673ffffffffffffffffffffffffffffffffffffffff163373ffffffffffffffffffffffffffffffffffffffff16148061156357506115626000808060018111156114b7576114b66121d0565b5b60018111156114c9576114c86121d0565b5b815260200190815260200160002080548060200260200160405190810160405280929190818152602001828054801561155757602002820191906000526020600020905b8160009054906101000a900473ffffffffffffffffffffffffffffffffffffffff1673ffffffffffffffffffffffffffffffffffffffff168152602001906001019080831161150d575b505050505033610aeb565b5b6115a2576040517f08c379a0000000000000000000000000000000000000000000000000000000008152600401611599906129b2565b60405180910390fd5b60008484846040516020016115b993929190612ab4565b60405160208183030381529060405280519060200120905060006040518060a001604052808381526020018781526020018681526020018581526020016040518060400160405280600481526020017f6e756c6c00000000000000000000000000000000000000000000000000000000815250815250905080600360008360000151815260200190815260200160002060008201518160000155602082015181600101908051906020019061166f929190611a91565b50604082015181600201908051906020019061168c929190611a91565b5060608201518160030190805190602001906116a9929190611a91565b5060808201518160040190805190602001906116c6929190611a91565b509050507fc4fef2e4f66b4012fc36bbc7af2dc5ecfd552e90ba419ae25b1872fc72ca1aac828787876040516116ff9493929190612ae5565b60405180910390a181925050509392505050565b600460009054906101000a900473ffffffffffffffffffffffffffffffffffffffff1673ffffffffffffffffffffffffffffffffffffffff163373ffffffffffffffffffffffffffffffffffffffff16146117a3576040517f08c379a000000000000000000000000000000000000000000000000000000000815260040161179a9061276b565b60405180910390fd5b80600660008460098111156117bb576117ba6121d0565b5b60098111156117cd576117cc6121d0565b5b815260200190815260200160002081905550600760008281526020019081526020016000206002018290806001815401808255809150506001900390600052602060002090602091828204019190069091909190916101000a81548160ff02191690836009811115611842576118416121d0565b5b02179055505050565b6000602052816000526040600020818154811061186757600080fd5b906000526020600020016000915091509054906101000a900473ffffffffffffffffffffffffffffffffffffffff1681565b6000600560008481526020019081526020016000206002015490506118bd83610652565b80156118ce57506118cd82610652565b5b1561190157806005600084815260200190815260200160002060020160008282546118f99190612a5e565b925050819055505b505050565b6001151561191383610652565b151514156119475780600360008481526020019081526020016000206004019080519060200190611945929190611a91565b505b5050565b600460009054906101000a900473ffffffffffffffffffffffffffffffffffffffff1673ffffffffffffffffffffffffffffffffffffffff163373ffffffffffffffffffffffffffffffffffffffff16146119db576040517f08c379a00000000000000000000000000000000000000000000000000000000081526004016119d29061276b565b60405180910390fd5b60036000828152602001908152602001600020600080820160009055600182016000611a079190611bcd565b600282016000611a179190611bcd565b600382016000611a279190611bcd565b600482016000611a379190611bcd565b505050565b60056020528060005260406000206000915090508060000154908060010154908060020154908060030160009054906101000a900460ff16905084565b60066020528060005260406000206000915090505481565b828054611a9d90612870565b90600052602060002090601f016020900481019282611abf5760008555611b06565b82601f10611ad857805160ff1916838001178555611b06565b82800160010185558215611b06579182015b82811115611b05578251825591602001919060010190611aea565b5b509050611b139190611c0d565b5090565b82805482825590600052602060002090601f01602090048101928215611bbc5791602002820160005b83821115611b8d57835183826101000a81548160ff02191690836009811115611b6c57611b6b6121d0565b5b02179055509260200192600101602081600001049283019260010302611b40565b8015611bba5782816101000a81549060ff0219169055600101602081600001049283019260010302611b8d565b505b509050611bc99190611c0d565b5090565b508054611bd990612870565b6000825580601f10611beb5750611c0a565b601f016020900490600052602060002090810190611c099190611c0d565b5b50565b5b80821115611c26576000816000905550600101611c0e565b5090565b6000604051905090565b600080fd5b600080fd5b600080fd5b600080fd5b6000601f19601f8301169050919050565b7f4e487b7100000000000000000000000000000000000000000000000000000000600052604160045260246000fd5b611c9182611c48565b810181811067ffffffffffffffff82111715611cb057611caf611c59565b5b80604052505050565b6000611cc3611c2a565b9050611ccf8282611c88565b919050565b600067ffffffffffffffff821115611cef57611cee611c59565b5b611cf882611c48565b9050602081019050919050565b82818337600083830152505050565b6000611d27611d2284611cd4565b611cb9565b905082815260208101848484011115611d4357611d42611c43565b5b611d4e848285611d05565b509392505050565b600082601f830112611d6b57611d6a611c3e565b5b8135611d7b848260208601611d14565b91505092915050565b600060208284031215611d9a57611d99611c34565b5b600082013567ffffffffffffffff811115611db857611db7611c39565b5b611dc484828501611d56565b91505092915050565b6000819050919050565b611de081611dcd565b8114611deb57600080fd5b50565b600081359050611dfd81611dd7565b92915050565b6000819050919050565b611e1681611e03565b8114611e2157600080fd5b50565b600081359050611e3381611e0d565b92915050565b60008060408385031215611e5057611e4f611c34565b5b6000611e5e85828601611dee565b9250506020611e6f85828601611e24565b9150509250929050565b600060208284031215611e8f57611e8e611c34565b5b6000611e9d84828501611dee565b91505092915050565b60008115159050919050565b611ebb81611ea6565b82525050565b6000602082019050611ed66000830184611eb2565b92915050565b611ee581611dcd565b82525050565b600081519050919050565b600082825260208201905092915050565b60005b83811015611f25578082015181840152602081019050611f0a565b83811115611f34576000848401525b50505050565b6000611f4582611eeb565b611f4f8185611ef6565b9350611f5f818560208601611f07565b611f6881611c48565b840191505092915050565b600060a082019050611f886000830188611edc565b8181036020830152611f9a8187611f3a565b90508181036040830152611fae8186611f3a565b90508181036060830152611fc28185611f3a565b90508181036080830152611fd68184611f3a565b90509695505050505050565b6000604082019050611ff76000830185611edc565b81810360208301526120098184611f3a565b90509392505050565b600067ffffffffffffffff82111561202d5761202c611c59565b5b602082029050602081019050919050565b600080fd5b600073ffffffffffffffffffffffffffffffffffffffff82169050919050565b600061206e82612043565b9050919050565b61207e81612063565b811461208957600080fd5b50565b60008135905061209b81612075565b92915050565b60006120b46120af84612012565b611cb9565b905080838252602082019050602084028301858111156120d7576120d661203e565b5b835b8181101561210057806120ec888261208c565b8452602084019350506020810190506120d9565b5050509392505050565b600082601f83011261211f5761211e611c3e565b5b813561212f8482602086016120a1565b91505092915050565b6000806040838503121561214f5761214e611c34565b5b600083013567ffffffffffffffff81111561216d5761216c611c39565b5b6121798582860161210a565b925050602061218a8582860161208c565b9150509250929050565b6000602082840312156121aa576121a9611c34565b5b60006121b88482850161208c565b91505092915050565b6121ca81612063565b82525050565b7f4e487b7100000000000000000000000000000000000000000000000000000000600052602160045260246000fd5b600a81106122105761220f6121d0565b5b50565b6000819050612221826121ff565b919050565b600061223182612213565b9050919050565b61224181612226565b82525050565b600060408201905061225c60008301856121c1565b6122696020830184612238565b9392505050565b600080fd5b600080fd5b600060a082840312156122905761228f612270565b5b61229a60a0611cb9565b905060006122aa84828501611dee565b600083015250602082013567ffffffffffffffff8111156122ce576122cd612275565b5b6122da84828501611d56565b602083015250604082013567ffffffffffffffff8111156122fe576122fd612275565b5b61230a84828501611d56565b604083015250606082013567ffffffffffffffff81111561232e5761232d612275565b5b61233a84828501611d56565b606083015250608082013567ffffffffffffffff81111561235e5761235d612275565b5b61236a84828501611d56565b60808301525092915050565b60006020828403121561238c5761238b611c34565b5b600082013567ffffffffffffffff8111156123aa576123a9611c39565b5b6123b68482850161227a565b91505092915050565b60006020820190506123d46000830184611edc565b92915050565b60006020820190506123ef6000830184612238565b92915050565b600a811061240257600080fd5b50565b600081359050612414816123f5565b92915050565b6000806040838503121561243157612430611c34565b5b600061243f8582860161208c565b925050602061245085828601612405565b9150509250929050565b6000602082840312156124705761246f611c34565b5b600061247e84828501612405565b91505092915050565b61249081611e03565b82525050565b60006020820190506124ab6000830184612487565b92915050565b6000806000606084860312156124ca576124c9611c34565b5b600084013567ffffffffffffffff8111156124e8576124e7611c39565b5b6124f486828701611d56565b935050602084013567ffffffffffffffff81111561251557612514611c39565b5b61252186828701611d56565b925050604084013567ffffffffffffffff81111561254257612541611c39565b5b61254e86828701611d56565b9150509250925092565b6000806040838503121561256f5761256e611c34565b5b600061257d85828601612405565b925050602061258e85828601611dee565b9150509250929050565b600281106125a557600080fd5b50565b6000813590506125b781612598565b92915050565b600080604083850312156125d4576125d3611c34565b5b60006125e2858286016125a8565b92505060206125f385828601611e24565b9150509250929050565b600060208201905061261260008301846121c1565b92915050565b6000806040838503121561262f5761262e611c34565b5b600061263d85828601611dee565b925050602061264e85828601611dee565b9150509250929050565b6000806040838503121561266f5761266e611c34565b5b600061267d85828601611dee565b925050602083013567ffffffffffffffff81111561269e5761269d611c39565b5b6126aa85828601611d56565b9150509250929050565b60006080820190506126c96000830187611edc565b6126d66020830186611edc565b6126e36040830185612487565b6126f06060830184612238565b95945050505050565b7f536f6c6f20696c2070726f70726965746172696f2070756f272073766f6c676560008201527f726520717565737461206f706572617a696f6e65000000000000000000000000602082015250565b6000612755603483611ef6565b9150612760826126f9565b604082019050919050565b6000602082019050818103600083015261278481612748565b9050919050565b600081905092915050565b60006127a182611eeb565b6127ab818561278b565b93506127bb818560208601611f07565b80840191505092915050565b60006127d38284612796565b915081905092915050565b7f4e487b7100000000000000000000000000000000000000000000000000000000600052601160045260246000fd5b600061281882611e03565b915061282383611e03565b925082821015612836576128356127de565b5b828203905092915050565b7f4e487b7100000000000000000000000000000000000000000000000000000000600052602260045260246000fd5b6000600282049050600182168061288857607f821691505b6020821081141561289c5761289b612841565b5b50919050565b7f4e487b7100000000000000000000000000000000000000000000000000000000600052603260045260246000fd5b60006128dc82611e03565b91507fffffffffffffffffffffffffffffffffffffffffffffffffffffffffffffffff82141561290f5761290e6127de565b5b600182019050919050565b7f536f6c6f20756e2066756e7a696f6e617265206f707075726520756e206f776e60008201527f657220706f73736f6e6f2073766f6c6765726520717565737461206f7065726160208201527f7a696f6e65000000000000000000000000000000000000000000000000000000604082015250565b600061299c604583611ef6565b91506129a78261291a565b606082019050919050565b600060208201905081810360008301526129cb8161298f565b9050919050565b6000819050919050565b6129ed6129e882611e03565b6129d2565b82525050565b60006129ff8287612796565b9150612a0b8286612796565b9150612a178285612796565b9150612a2382846129dc565b60208201915081905095945050505050565b6000604082019050612a4a6000830185611edc565b612a576020830184611edc565b9392505050565b6000612a6982611e03565b9150612a7483611e03565b9250827fffffffffffffffffffffffffffffffffffffffffffffffffffffffffffffffff03821115612aa957612aa86127de565b5b828201905092915050565b6000612ac08286612796565b9150612acc8285612796565b9150612ad88284612796565b9150819050949350505050565b6000608082019050612afa6000830187611edc565b8181036020830152612b0c8186611f3a565b90508181036040830152612b208185611f3a565b90508181036060830152612b348184611f3a565b90509594505050505056fea26469706673582212203ab5c42e24867066ba9fb77b5e02790d4b3f70d0f9223afc96bb6fbc66b3995f64736f6c634300080b0033",
  "immutableReferences": {},
  "source": "// SPDX-License-Identifier: MIT\npragma solidity >=0.4.22 <0.9.0;\n\nimport \"./GestioneRuoli.sol\";\n\n/**\n* @title GestoreGenerale\n* @author Gabriele Benedetti, Giulia Pascale \n* @notice Contratto che offre strumenti utili per la gestione di tessere per la raccolta punti di supermercati e negozi\n*/\ncontract GestoreGenerale is GestioneRuoli{\n\n    mapping(bytes32 => Carta) public carte;\n\n    event NuovaCarta(\n        bytes32 id,\n        bytes32 id_cliente\n    );\n\n    /**\n    * @dev Funzione che crea una nuova carta per un cliente e gli assegna un codice univoco\n    * Questa funzione pu essere invocata dal proprietario o da un funzionario\n    * @param c cliente per il quale va creata la carta\n    */\n    function addCarta(Cliente memory c) public onlyFunzionarioOrOwner returns(bytes32) {\n        uint date = block.timestamp;\n        bytes32 ID = keccak256(abi.encodePacked(c.nome, c.cognome, c.dataDiNascita, date));\n        Carta memory i = Carta(ID, c.id, 0, funzionari[msg.sender].negozio);\n        carte[ID] = i;\n        emit NuovaCarta(ID, c.id);\n        return ID;\n    }\n\n\n    /**\n    * @dev Funzione che aggiunge nuovi punti ad una carta\n    * @param id_carta codice univoco della carta\n    * @param numeroPunti numero dei punti da aggiungere alla carta\n    */\n    function addPunti(bytes32 id_carta, uint numeroPunti) public {\n        if(checkAuthority(id_carta) == true)\n            carte[id_carta].punti += numeroPunti;  \n    }\n\n    /**\n    * @dev Funzione che decrementa i punti ad una carta\n    * @param id_carta codice univoco della carta\n    * @param numeroPunti numero dei punti da decrementare dalla carta\n    */\n    function removePunti(bytes32 id_carta, uint numeroPunti) public {\n        if(checkAuthority(id_carta) == true)\n            carte[id_carta].punti -= numeroPunti;\n    }\n\n    /**\n    * @dev Funzione che permette di leggere l'ammontare di punti di una carta\n    * @param id_carta codice univoco della carta\n    */\n    function getPunti(bytes32 id_carta) public view returns(uint){\n        return carte[id_carta].punti;\n    }\n\n    /**\n    * @dev Funzione che inserisce una notazione nei dati di un cliente, \n    * utile qualora si dovesse inserire notazioni su un cliente che ha avuto problemi con la carta o il negozio\n    * @param id codice univoco del cliente\n    * @param notazione la notazione o descrizione che si vuole inserire su un cliente\n    */\n    function addNote(bytes32 id, string memory notazione) public {\n        if(checkAuthority(id) == true)\n            clienti[id].note = notazione;\n    }\n\n    /**\n    * @dev Funzione che azzera i punti di una carta\n    * @param id codice univoco della carta\n    */\n    function azzeraPunti(bytes32 id) public{\n        if(checkAuthority(id) == true)\n            carte[id].punti = 0;\n    }\n\n    /**\n    * @dev Funzione che sposta i punti da una specifica carta ad un'altra. \n    * Utile qualora serva la sostituzione di una carta (Es: carta smagnetizzata, ne occorre fare una nuova)\n    * oppure un cliente con pi carte volesse unirle\n    * @param id_from codice univoco della carta dalla quale prendere i punti\n    * @param id_destinatario codice univoco della carta alla quale saranno aggiunti i punti\n    */\n    function movePunti(bytes32 id_from, bytes32 id_destinatario) public {\n        uint ammontare = carte[id_from].punti;\n        if(checkAuthority(id_from) && checkAuthority(id_destinatario))\n            carte[id_destinatario].punti += ammontare;\n    }\n\n    /**\n    * @dev Funzione che elimina una carta\n    * @param id codice univoco della carta\n    */\n    function deleteCarta(bytes32 id) public {\n        if(checkAuthority(id) == true)\n            delete carte[id];\n    }\n\n    /**\n    * @dev Funzione che elimina un cliente\n    * @param id_cliente codice univoco del cliente\n    */\n    function deleteCliente(bytes32 id_cliente) public onlyOwner{\n        delete clienti[id_cliente];\n    }\n\n    struct Consorzio{\n        bytes32 id;\n        string nome;\n        Negozio[] negozi;\n    }\n\n    mapping(Negozio => bytes32) public consorzioNegozi;\n    mapping(bytes32 => Consorzio) public consorzi;\n\n    function addConsorzio(string memory nome) public onlyOwner{\n        bytes32 ID = keccak256(abi.encodePacked(nome));\n        Negozio[] memory n;\n        Consorzio memory c = Consorzio(ID, nome, n);\n        consorzi[ID] = c;\n    }\n\n    function addNegozioConsorzio(Negozio negozio, bytes32 id_consorzio) public onlyOwner{\n        consorzioNegozi[negozio] = id_consorzio;\n        consorzi[id_consorzio].negozi.push(negozio);\n    }\n\n    function removeNegozioConsorzio(Negozio negozio) public onlyOwner{\n        bytes32 id_consorzio = consorzioNegozi[negozio];\n        delete consorzioNegozi[negozio];\n        for (uint i = 0; i < consorzi[id_consorzio].negozi.length; i++){\n            if (consorzi[id_consorzio].negozi[i] == negozio){\n                delete consorzi[id_consorzio].negozi[i];\n            }\n        }\n    }\n\n    /**\n    *@dev Funzione che controlla se c' l'autorit di operare\n    * [1] la carta deve essere dello stesso negozio in cui opera il funzionario\n    * Oppure\n    * [2] la carta deve appartenere allo stesso consorzio di negozi in cui opera il funzionario (carta di un negozio diverso, stesso consorzio)\n    *@param id_carta id univoco della carta su cui si vuole effettuare l'operazione\n    */\n    function checkAuthority(bytes32 id_carta) public view returns (bool){\n        bytes32 id_consorzio_carta = consorzioNegozi[carte[id_carta].negozio];\n        bytes32 id_consorzio_funzionario = consorzioNegozi[funzionari[msg.sender].negozio];\n        return (carte[id_carta].negozio == funzionari[msg.sender].negozio || id_consorzio_carta == id_consorzio_funzionario);\n    }\n\n}\n\n\n",
  "sourcePath": "/home/missfoxy394/SDC/Progetto-Sistemi-distribuiti-cooperativi/contracts/GestoreGenerale.sol",
  "compiler": {
    "name": "solc",
    "version": "0.8.11+commit.d7f03943.Emscripten.clang"
  },
  "schemaVersion": "3.4.4",
  "updatedAt": "2022-02-12T18:52:44.575Z",
  "networkType": "ethereum",
  "devdoc": {
    "author": "Gabriele Benedetti, Giulia Pascale ",
    "kind": "dev",
    "methods": {
      "addCarta((bytes32,string,string,string,string))": {
        "details": "Funzione che crea una nuova carta per un cliente e gli assegna un codice univoco Questa funzione pu essere invocata dal proprietario o da un funzionario",
        "params": {
          "c": "cliente per il quale va creata la carta"
        }
      },
      "addCliente(string,string,string)": {
        "details": "Funzione che crea un nuovo cliente e gli assegna un codice univoco Questa funzione pu essere invocata dal proprietario o da un funzionario",
        "params": {
          "cognome": "cognome del cliente",
          "data_nascita": "data di nascita del cliente",
          "nome": "nome del cliente"
        },
        "returns": {
          "_0": "ID generato"
        }
      },
      "addFunzionario(address,uint8)": {
        "details": "Funzione che crea un nuovo funzionario e gli assegna un codice univoco Questa funzione pu essere invocata solo dal proprietario",
        "params": {
          "id": "address del funzionario",
          "n": "negozio nel quale opera il funzionario"
        }
      },
      "addNote(bytes32,string)": {
        "details": "Funzione che inserisce una notazione nei dati di un cliente,  utile qualora si dovesse inserire notazioni su un cliente che ha avuto problemi con la carta o il negozio",
        "params": {
          "id": "codice univoco del cliente",
          "notazione": "la notazione o descrizione che si vuole inserire su un cliente"
        }
      },
      "addPunti(bytes32,uint256)": {
        "details": "Funzione che aggiunge nuovi punti ad una carta",
        "params": {
          "id_carta": "codice univoco della carta",
          "numeroPunti": "numero dei punti da aggiungere alla carta"
        }
      },
      "azzeraPunti(bytes32)": {
        "details": "Funzione che azzera i punti di una carta",
        "params": {
          "id": "codice univoco della carta"
        }
      },
      "checkAuthority(bytes32)": {
        "details": "Funzione che controlla se c' l'autorit di operare [1] la carta deve essere dello stesso negozio in cui opera il funzionario Oppure [2] la carta deve appartenere allo stesso consorzio di negozi in cui opera il funzionario (carta di un negozio diverso, stesso consorzio)",
        "params": {
          "id_carta": "id univoco della carta su cui si vuole effettuare l'operazione"
        }
      },
      "deleteCarta(bytes32)": {
        "details": "Funzione che elimina una carta",
        "params": {
          "id": "codice univoco della carta"
        }
      },
      "deleteCliente(bytes32)": {
        "details": "Funzione che elimina un cliente",
        "params": {
          "id_cliente": "codice univoco del cliente"
        }
      },
      "getPunti(bytes32)": {
        "details": "Funzione che permette di leggere l'ammontare di punti di una carta",
        "params": {
          "id_carta": "codice univoco della carta"
        }
      },
      "movePunti(bytes32,bytes32)": {
        "details": "Funzione che sposta i punti da una specifica carta ad un'altra.  Utile qualora serva la sostituzione di una carta (Es: carta smagnetizzata, ne occorre fare una nuova) oppure un cliente con pi carte volesse unirle",
        "params": {
          "id_destinatario": "codice univoco della carta alla quale saranno aggiunti i punti",
          "id_from": "codice univoco della carta dalla quale prendere i punti"
        }
      },
      "removePunti(bytes32,uint256)": {
        "details": "Funzione che decrementa i punti ad una carta",
        "params": {
          "id_carta": "codice univoco della carta",
          "numeroPunti": "numero dei punti da decrementare dalla carta"
        }
      }
    },
    "title": "GestoreGenerale",
    "version": 1
  },
  "userdoc": {
    "kind": "user",
    "methods": {},
    "notice": "Contratto che offre strumenti utili per la gestione di tessere per la raccolta punti di supermercati e negozi",
    "version": 1
  }
}