{
  "contractName": "GestoreGenerale",
  "abi": [
    {
      "anonymous": false,
      "inputs": [
        {
          "indexed": false,
          "internalType": "bytes32",
          "name": "id",
          "type": "bytes32"
        },
        {
          "indexed": false,
          "internalType": "bytes32",
          "name": "id_cliente",
          "type": "bytes32"
        }
      ],
      "name": "NuovaCarta",
      "type": "event"
    },
    {
      "anonymous": false,
      "inputs": [
        {
          "indexed": false,
          "internalType": "bytes32",
          "name": "id",
          "type": "bytes32"
        },
        {
          "indexed": false,
          "internalType": "string",
          "name": "nome",
          "type": "string"
        },
        {
          "indexed": false,
          "internalType": "string",
          "name": "cognome",
          "type": "string"
        },
        {
          "indexed": false,
          "internalType": "string",
          "name": "dataDiNascita",
          "type": "string"
        }
      ],
      "name": "NuovoCliente",
      "type": "event"
    },
    {
      "inputs": [
        {
          "internalType": "string",
          "name": "nome",
          "type": "string"
        },
        {
          "internalType": "string",
          "name": "cognome",
          "type": "string"
        },
        {
          "internalType": "string",
          "name": "data_nascita",
          "type": "string"
        }
      ],
      "name": "addCliente",
      "outputs": [
        {
          "internalType": "bytes32",
          "name": "",
          "type": "bytes32"
        }
      ],
      "stateMutability": "nonpayable",
      "type": "function"
    },
    {
      "inputs": [
        {
          "internalType": "address",
          "name": "id",
          "type": "address"
        },
        {
          "internalType": "enum GestioneRuoli.Negozio",
          "name": "n",
          "type": "uint8"
        }
      ],
      "name": "addFunzionario",
      "outputs": [],
      "stateMutability": "nonpayable",
      "type": "function"
    },
    {
      "inputs": [
        {
          "internalType": "bytes32",
          "name": "",
          "type": "bytes32"
        }
      ],
      "name": "carte",
      "outputs": [
        {
          "internalType": "bytes32",
          "name": "id",
          "type": "bytes32"
        },
        {
          "internalType": "bytes32",
          "name": "cliente",
          "type": "bytes32"
        },
        {
          "internalType": "uint256",
          "name": "punti",
          "type": "uint256"
        },
        {
          "internalType": "enum GestioneRuoli.Negozio",
          "name": "negozio",
          "type": "uint8"
        }
      ],
      "stateMutability": "view",
      "type": "function",
      "constant": true
    },
    {
      "inputs": [
        {
          "internalType": "bytes32",
          "name": "",
          "type": "bytes32"
        }
      ],
      "name": "clienti",
      "outputs": [
        {
          "internalType": "bytes32",
          "name": "id",
          "type": "bytes32"
        },
        {
          "internalType": "string",
          "name": "nome",
          "type": "string"
        },
        {
          "internalType": "string",
          "name": "cognome",
          "type": "string"
        },
        {
          "internalType": "string",
          "name": "dataDiNascita",
          "type": "string"
        },
        {
          "internalType": "string",
          "name": "note",
          "type": "string"
        }
      ],
      "stateMutability": "view",
      "type": "function",
      "constant": true
    },
    {
      "inputs": [
        {
          "internalType": "address[]",
          "name": "a",
          "type": "address[]"
        },
        {
          "internalType": "address",
          "name": "x",
          "type": "address"
        }
      ],
      "name": "contains",
      "outputs": [
        {
          "internalType": "bool",
          "name": "",
          "type": "bool"
        }
      ],
      "stateMutability": "pure",
      "type": "function",
      "constant": true
    },
    {
      "inputs": [
        {
          "internalType": "address",
          "name": "",
          "type": "address"
        }
      ],
      "name": "funzionari",
      "outputs": [
        {
          "internalType": "address",
          "name": "id",
          "type": "address"
        },
        {
          "internalType": "enum GestioneRuoli.Negozio",
          "name": "negozio",
          "type": "uint8"
        }
      ],
      "stateMutability": "view",
      "type": "function",
      "constant": true
    },
    {
      "inputs": [
        {
          "internalType": "address",
          "name": "",
          "type": "address"
        }
      ],
      "name": "negozio_funzionario",
      "outputs": [
        {
          "internalType": "enum GestioneRuoli.Negozio",
          "name": "",
          "type": "uint8"
        }
      ],
      "stateMutability": "view",
      "type": "function",
      "constant": true
    },
    {
      "inputs": [
        {
          "internalType": "enum GestioneRuoli.Ruolo",
          "name": "",
          "type": "uint8"
        },
        {
          "internalType": "uint256",
          "name": "",
          "type": "uint256"
        }
      ],
      "name": "ruoli",
      "outputs": [
        {
          "internalType": "address",
          "name": "",
          "type": "address"
        }
      ],
      "stateMutability": "view",
      "type": "function",
      "constant": true
    },
    {
      "inputs": [
        {
          "components": [
            {
              "internalType": "bytes32",
              "name": "id",
              "type": "bytes32"
            },
            {
              "internalType": "string",
              "name": "nome",
              "type": "string"
            },
            {
              "internalType": "string",
              "name": "cognome",
              "type": "string"
            },
            {
              "internalType": "string",
              "name": "dataDiNascita",
              "type": "string"
            },
            {
              "internalType": "string",
              "name": "note",
              "type": "string"
            }
          ],
          "internalType": "struct GestioneRuoli.Cliente",
          "name": "c",
          "type": "tuple"
        }
      ],
      "name": "addCarta",
      "outputs": [
        {
          "internalType": "bytes32",
          "name": "",
          "type": "bytes32"
        }
      ],
      "stateMutability": "nonpayable",
      "type": "function"
    },
    {
      "inputs": [
        {
          "internalType": "bytes32",
          "name": "id_carta",
          "type": "bytes32"
        },
        {
          "internalType": "uint256",
          "name": "numeroPunti",
          "type": "uint256"
        }
      ],
      "name": "addPunti",
      "outputs": [],
      "stateMutability": "nonpayable",
      "type": "function"
    },
    {
      "inputs": [
        {
          "internalType": "bytes32",
          "name": "id_carta",
          "type": "bytes32"
        },
        {
          "internalType": "uint256",
          "name": "numeroPunti",
          "type": "uint256"
        }
      ],
      "name": "removePunti",
      "outputs": [],
      "stateMutability": "nonpayable",
      "type": "function"
    },
    {
      "inputs": [
        {
          "internalType": "bytes32",
          "name": "id_carta",
          "type": "bytes32"
        }
      ],
      "name": "getPunti",
      "outputs": [
        {
          "internalType": "uint256",
          "name": "",
          "type": "uint256"
        }
      ],
      "stateMutability": "view",
      "type": "function",
      "constant": true
    },
    {
      "inputs": [
        {
          "internalType": "bytes32",
          "name": "id",
          "type": "bytes32"
        },
        {
          "internalType": "string",
          "name": "descrizione",
          "type": "string"
        }
      ],
      "name": "addNote",
      "outputs": [],
      "stateMutability": "nonpayable",
      "type": "function"
    },
    {
      "inputs": [
        {
          "internalType": "bytes32",
          "name": "id",
          "type": "bytes32"
        }
      ],
      "name": "azzeraPunti",
      "outputs": [],
      "stateMutability": "nonpayable",
      "type": "function"
    },
    {
      "inputs": [
        {
          "internalType": "bytes32",
          "name": "id_from",
          "type": "bytes32"
        },
        {
          "internalType": "bytes32",
          "name": "id_destinatario",
          "type": "bytes32"
        }
      ],
      "name": "movePunti",
      "outputs": [],
      "stateMutability": "nonpayable",
      "type": "function"
    },
    {
      "inputs": [
        {
          "internalType": "bytes32",
          "name": "id",
          "type": "bytes32"
        }
      ],
      "name": "deleteCarta",
      "outputs": [],
      "stateMutability": "nonpayable",
      "type": "function"
    },
    {
      "inputs": [
        {
          "internalType": "bytes32",
          "name": "id_cliente",
          "type": "bytes32"
        }
      ],
      "name": "deleteCliente",
      "outputs": [],
      "stateMutability": "nonpayable",
      "type": "function"
    }
  ],
  "bytecode": "0x60806040523480156200001157600080fd5b5033600460006101000a81548173ffffffffffffffffffffffffffffffffffffffff021916908373ffffffffffffffffffffffffffffffffffffffff160217905550620000663360086200006c60201b60201c565b620003ec565b600460009054906101000a900473ffffffffffffffffffffffffffffffffffffffff1673ffffffffffffffffffffffffffffffffffffffff163373ffffffffffffffffffffffffffffffffffffffff1614620000ff576040517f08c379a0000000000000000000000000000000000000000000000000000000008152600401620000f6906200039b565b60405180910390fd5b600060405180604001604052808473ffffffffffffffffffffffffffffffffffffffff1681526020018360098111156200013e576200013d620003bd565b5b815250905080600260008573ffffffffffffffffffffffffffffffffffffffff1673ffffffffffffffffffffffffffffffffffffffff16815260200190815260200160002060008201518160000160006101000a81548173ffffffffffffffffffffffffffffffffffffffff021916908373ffffffffffffffffffffffffffffffffffffffff16021790555060208201518160000160146101000a81548160ff02191690836009811115620001f857620001f7620003bd565b5b0217905550905050600080806001811115620002195762000218620003bd565b5b60018111156200022e576200022d620003bd565b5b815260200190815260200160002081600001519080600181540180825580915050600190039060005260206000200160009091909190916101000a81548173ffffffffffffffffffffffffffffffffffffffff021916908373ffffffffffffffffffffffffffffffffffffffff1602179055508160016000836000015173ffffffffffffffffffffffffffffffffffffffff1673ffffffffffffffffffffffffffffffffffffffff16815260200190815260200160002060006101000a81548160ff021916908360098111156200030a5762000309620003bd565b5b0217905550505050565b600082825260208201905092915050565b7f536f6c6f20696c2070726f70726965746172696f2070756f272061676769756e60008201527f676572652066756e7a696f6e6172690000000000000000000000000000000000602082015250565b600062000383602f8362000314565b9150620003908262000325565b604082019050919050565b60006020820190508181036000830152620003b68162000374565b9050919050565b7f4e487b7100000000000000000000000000000000000000000000000000000000600052602160045260246000fd5b612a2a80620003fc6000396000f3fe608060405234801561001057600080fd5b506004361061010b5760003560e01c80636286b1cc116100a2578063830a1b5b11610071578063830a1b5b146102f1578063832f5119146103215780638d5050191461033d578063c390383b14610359578063ecd871aa146103755761010b565b80636286b1cc146102595780636ce1b19c146102755780636e21b8c314610291578063732783d2146102c15761010b565b80634522a1b6116100de5780634522a1b6146101ac5780634851f538146101dd57806353b76d5a1461020d57806358e2a2271461023d5761010b565b80631bce4f0d146101105780631e3ffc471461012c5780633da80d66146101605780633f97678814610190575b600080fd5b61012a60048036038101906101259190611c5c565b6103a8565b005b61014660048036038101906101419190611c9c565b610534565b604051610157959493929190611d71565b60405180910390f35b61017a60048036038101906101759190611f86565b61078a565b6040516101879190611ffd565b60405180910390f35b6101aa60048036038101906101a59190611c9c565b61080e565b005b6101c660048036038101906101c19190612018565b6109ae565b6040516101d49291906120cb565b60405180910390f35b6101f760048036038101906101f291906122af565b6109ff565b60405161020491906122f8565b60405180910390f35b61022760048036038101906102229190612018565b610cd6565b6040516102349190612313565b60405180910390f35b61025760048036038101906102529190612353565b610cf6565b005b610273600480360381019061026e9190611c5c565b610f8c565b005b61028f600480360381019061028a9190611c9c565b611118565b005b6102ab60048036038101906102a69190611c9c565b611292565b6040516102b891906123a2565b60405180910390f35b6102db60048036038101906102d691906123bd565b6112b2565b6040516102e891906122f8565b60405180910390f35b61030b60048036038101906103069190612489565b611580565b60405161031891906124c9565b60405180910390f35b61033b600480360381019061033691906124e4565b6115ce565b005b61035760048036038101906103529190612524565b611776565b005b610373600480360381019061036e9190611c9c565b611900565b005b61038f600480360381019061038a9190611c9c565b611abc565b60405161039f9493929190612580565b60405180910390f35b600460009054906101000a900473ffffffffffffffffffffffffffffffffffffffff1673ffffffffffffffffffffffffffffffffffffffff163373ffffffffffffffffffffffffffffffffffffffff1614806104c457506104c360008080600181111561041857610417612054565b5b600181111561042a57610429612054565b5b81526020019081526020016000208054806020026020016040519081016040528092919081815260200182805480156104b857602002820191906000526020600020905b8160009054906101000a900473ffffffffffffffffffffffffffffffffffffffff1673ffffffffffffffffffffffffffffffffffffffff168152602001906001019080831161046e575b50505050503361078a565b5b610503576040517f08c379a00000000000000000000000000000000000000000000000000000000081526004016104fa9061265d565b60405180910390fd5b8060056000848152602001908152602001600020600201600082825461052991906126ac565b925050819055505050565b600360205280600052604060002060009150905080600001549080600101805461055d9061270f565b80601f01602080910402602001604051908101604052809291908181526020018280546105899061270f565b80156105d65780601f106105ab576101008083540402835291602001916105d6565b820191906000526020600020905b8154815290600101906020018083116105b957829003601f168201915b5050505050908060020180546105eb9061270f565b80601f01602080910402602001604051908101604052809291908181526020018280546106179061270f565b80156106645780601f1061063957610100808354040283529160200191610664565b820191906000526020600020905b81548152906001019060200180831161064757829003601f168201915b5050505050908060030180546106799061270f565b80601f01602080910402602001604051908101604052809291908181526020018280546106a59061270f565b80156106f25780601f106106c7576101008083540402835291602001916106f2565b820191906000526020600020905b8154815290600101906020018083116106d557829003601f168201915b5050505050908060040180546107079061270f565b80601f01602080910402602001604051908101604052809291908181526020018280546107339061270f565b80156107805780601f1061075557610100808354040283529160200191610780565b820191906000526020600020905b81548152906001019060200180831161076357829003601f168201915b5050505050905085565b6000806000905060005b8451811015610803578481815181106107b0576107af612741565b5b602002602001015173ffffffffffffffffffffffffffffffffffffffff168473ffffffffffffffffffffffffffffffffffffffff1614156107f057600191505b80806107fb90612770565b915050610794565b508091505092915050565b600460009054906101000a900473ffffffffffffffffffffffffffffffffffffffff1673ffffffffffffffffffffffffffffffffffffffff163373ffffffffffffffffffffffffffffffffffffffff16148061092a575061092960008080600181111561087e5761087d612054565b5b60018111156108905761088f612054565b5b815260200190815260200160002080548060200260200160405190810160405280929190818152602001828054801561091e57602002820191906000526020600020905b8160009054906101000a900473ffffffffffffffffffffffffffffffffffffffff1673ffffffffffffffffffffffffffffffffffffffff16815260200190600101908083116108d4575b50505050503361078a565b5b610969576040517f08c379a00000000000000000000000000000000000000000000000000000000081526004016109609061265d565b60405180910390fd5b60056000828152602001908152602001600020600080820160009055600182016000905560028201600090556003820160006101000a81549060ff0219169055505050565b60026020528060005260406000206000915090508060000160009054906101000a900473ffffffffffffffffffffffffffffffffffffffff16908060000160149054906101000a900460ff16905082565b6000600460009054906101000a900473ffffffffffffffffffffffffffffffffffffffff1673ffffffffffffffffffffffffffffffffffffffff163373ffffffffffffffffffffffffffffffffffffffff161480610b1d5750610b1c600080806001811115610a7157610a70612054565b5b6001811115610a8357610a82612054565b5b8152602001908152602001600020805480602002602001604051908101604052809291908181526020018280548015610b1157602002820191906000526020600020905b8160009054906101000a900473ffffffffffffffffffffffffffffffffffffffff1673ffffffffffffffffffffffffffffffffffffffff1681526020019060010190808311610ac7575b50505050503361078a565b5b610b5c576040517f08c379a0000000000000000000000000000000000000000000000000000000008152600401610b539061265d565b60405180910390fd5b6000429050600083602001518460400151856060015184604051602001610b869493929190612816565b604051602081830303815290604052805190602001209050600060405180608001604052808381526020018660000151815260200160008152602001600260003373ffffffffffffffffffffffffffffffffffffffff1673ffffffffffffffffffffffffffffffffffffffff16815260200190815260200160002060000160149054906101000a900460ff166009811115610c2457610c23612054565b5b8152509050806005600084815260200190815260200160002060008201518160000155602082015181600101556040820151816002015560608201518160030160006101000a81548160ff02191690836009811115610c8657610c85612054565b5b02179055509050507fe7190113bbfb8bfbc768533903c287da50dbb0d32d4ade8ccbe5178b6afafa6d828660000151604051610cc3929190612858565b60405180910390a1819350505050919050565b60016020528060005260406000206000915054906101000a900460ff1681565b600460009054906101000a900473ffffffffffffffffffffffffffffffffffffffff1673ffffffffffffffffffffffffffffffffffffffff163373ffffffffffffffffffffffffffffffffffffffff1614610d86576040517f08c379a0000000000000000000000000000000000000000000000000000000008152600401610d7d906128f3565b60405180910390fd5b600060405180604001604052808473ffffffffffffffffffffffffffffffffffffffff168152602001836009811115610dc257610dc1612054565b5b815250905080600260008573ffffffffffffffffffffffffffffffffffffffff1673ffffffffffffffffffffffffffffffffffffffff16815260200190815260200160002060008201518160000160006101000a81548173ffffffffffffffffffffffffffffffffffffffff021916908373ffffffffffffffffffffffffffffffffffffffff16021790555060208201518160000160146101000a81548160ff02191690836009811115610e7957610e78612054565b5b0217905550905050600080806001811115610e9757610e96612054565b5b6001811115610ea957610ea8612054565b5b815260200190815260200160002081600001519080600181540180825580915050600190039060005260206000200160009091909190916101000a81548173ffffffffffffffffffffffffffffffffffffffff021916908373ffffffffffffffffffffffffffffffffffffffff1602179055508160016000836000015173ffffffffffffffffffffffffffffffffffffffff1673ffffffffffffffffffffffffffffffffffffffff16815260200190815260200160002060006101000a81548160ff02191690836009811115610f8257610f81612054565b5b0217905550505050565b600460009054906101000a900473ffffffffffffffffffffffffffffffffffffffff1673ffffffffffffffffffffffffffffffffffffffff163373ffffffffffffffffffffffffffffffffffffffff1614806110a857506110a7600080806001811115610ffc57610ffb612054565b5b600181111561100e5761100d612054565b5b815260200190815260200160002080548060200260200160405190810160405280929190818152602001828054801561109c57602002820191906000526020600020905b8160009054906101000a900473ffffffffffffffffffffffffffffffffffffffff1673ffffffffffffffffffffffffffffffffffffffff1681526020019060010190808311611052575b50505050503361078a565b5b6110e7576040517f08c379a00000000000000000000000000000000000000000000000000000000081526004016110de9061265d565b60405180910390fd5b8060056000848152602001908152602001600020600201600082825461110d9190612913565b925050819055505050565b600460009054906101000a900473ffffffffffffffffffffffffffffffffffffffff1673ffffffffffffffffffffffffffffffffffffffff163373ffffffffffffffffffffffffffffffffffffffff161480611234575061123360008080600181111561118857611187612054565b5b600181111561119a57611199612054565b5b815260200190815260200160002080548060200260200160405190810160405280929190818152602001828054801561122857602002820191906000526020600020905b8160009054906101000a900473ffffffffffffffffffffffffffffffffffffffff1673ffffffffffffffffffffffffffffffffffffffff16815260200190600101908083116111de575b50505050503361078a565b5b611273576040517f08c379a000000000000000000000000000000000000000000000000000000000815260040161126a9061265d565b60405180910390fd5b6000600560008381526020019081526020016000206002018190555050565b600060056000838152602001908152602001600020600201549050919050565b6000600460009054906101000a900473ffffffffffffffffffffffffffffffffffffffff1673ffffffffffffffffffffffffffffffffffffffff163373ffffffffffffffffffffffffffffffffffffffff1614806113d057506113cf60008080600181111561132457611323612054565b5b600181111561133657611335612054565b5b81526020019081526020016000208054806020026020016040519081016040528092919081815260200182805480156113c457602002820191906000526020600020905b8160009054906101000a900473ffffffffffffffffffffffffffffffffffffffff1673ffffffffffffffffffffffffffffffffffffffff168152602001906001019080831161137a575b50505050503361078a565b5b61140f576040517f08c379a00000000000000000000000000000000000000000000000000000000081526004016114069061265d565b60405180910390fd5b600084848460405160200161142693929190612969565b60405160208183030381529060405280519060200120905060006040518060a001604052808381526020018781526020018681526020018581526020016040518060400160405280600481526020017f6e756c6c0000000000000000000000000000000000000000000000000000000081525081525090508060036000836000015181526020019081526020016000206000820151816000015560208201518160010190805190602001906114dc929190611af9565b5060408201518160020190805190602001906114f9929190611af9565b506060820151816003019080519060200190611516929190611af9565b506080820151816004019080519060200190611533929190611af9565b509050507fc4fef2e4f66b4012fc36bbc7af2dc5ecfd552e90ba419ae25b1872fc72ca1aac8287878760405161156c949392919061299a565b60405180910390a181925050509392505050565b6000602052816000526040600020818154811061159c57600080fd5b906000526020600020016000915091509054906101000a900473ffffffffffffffffffffffffffffffffffffffff1681565b600460009054906101000a900473ffffffffffffffffffffffffffffffffffffffff1673ffffffffffffffffffffffffffffffffffffffff163373ffffffffffffffffffffffffffffffffffffffff1614806116ea57506116e960008080600181111561163e5761163d612054565b5b60018111156116505761164f612054565b5b81526020019081526020016000208054806020026020016040519081016040528092919081815260200182805480156116de57602002820191906000526020600020905b8160009054906101000a900473ffffffffffffffffffffffffffffffffffffffff1673ffffffffffffffffffffffffffffffffffffffff1681526020019060010190808311611694575b50505050503361078a565b5b611729576040517f08c379a00000000000000000000000000000000000000000000000000000000081526004016117209061265d565b60405180910390fd5b6000600560008481526020019081526020016000206002015490508060056000848152602001908152602001600020600201600082825461176a9190612913565b92505081905550505050565b600460009054906101000a900473ffffffffffffffffffffffffffffffffffffffff1673ffffffffffffffffffffffffffffffffffffffff163373ffffffffffffffffffffffffffffffffffffffff16148061189257506118916000808060018111156117e6576117e5612054565b5b60018111156117f8576117f7612054565b5b815260200190815260200160002080548060200260200160405190810160405280929190818152602001828054801561188657602002820191906000526020600020905b8160009054906101000a900473ffffffffffffffffffffffffffffffffffffffff1673ffffffffffffffffffffffffffffffffffffffff168152602001906001019080831161183c575b50505050503361078a565b5b6118d1576040517f08c379a00000000000000000000000000000000000000000000000000000000081526004016118c89061265d565b60405180910390fd5b806003600084815260200190815260200160002060040190805190602001906118fb929190611af9565b505050565b600460009054906101000a900473ffffffffffffffffffffffffffffffffffffffff1673ffffffffffffffffffffffffffffffffffffffff163373ffffffffffffffffffffffffffffffffffffffff161480611a1c5750611a1b6000808060018111156119705761196f612054565b5b600181111561198257611981612054565b5b8152602001908152602001600020805480602002602001604051908101604052809291908181526020018280548015611a1057602002820191906000526020600020905b8160009054906101000a900473ffffffffffffffffffffffffffffffffffffffff1673ffffffffffffffffffffffffffffffffffffffff16815260200190600101908083116119c6575b50505050503361078a565b5b611a5b576040517f08c379a0000000000000000000000000000000000000000000000000000000008152600401611a529061265d565b60405180910390fd5b60036000828152602001908152602001600020600080820160009055600182016000611a879190611b7f565b600282016000611a979190611b7f565b600382016000611aa79190611b7f565b600482016000611ab79190611b7f565b505050565b60056020528060005260406000206000915090508060000154908060010154908060020154908060030160009054906101000a900460ff16905084565b828054611b059061270f565b90600052602060002090601f016020900481019282611b275760008555611b6e565b82601f10611b4057805160ff1916838001178555611b6e565b82800160010185558215611b6e579182015b82811115611b6d578251825591602001919060010190611b52565b5b509050611b7b9190611bbf565b5090565b508054611b8b9061270f565b6000825580601f10611b9d5750611bbc565b601f016020900490600052602060002090810190611bbb9190611bbf565b5b50565b5b80821115611bd8576000816000905550600101611bc0565b5090565b6000604051905090565b600080fd5b600080fd5b6000819050919050565b611c0381611bf0565b8114611c0e57600080fd5b50565b600081359050611c2081611bfa565b92915050565b6000819050919050565b611c3981611c26565b8114611c4457600080fd5b50565b600081359050611c5681611c30565b92915050565b60008060408385031215611c7357611c72611be6565b5b6000611c8185828601611c11565b9250506020611c9285828601611c47565b9150509250929050565b600060208284031215611cb257611cb1611be6565b5b6000611cc084828501611c11565b91505092915050565b611cd281611bf0565b82525050565b600081519050919050565b600082825260208201905092915050565b60005b83811015611d12578082015181840152602081019050611cf7565b83811115611d21576000848401525b50505050565b6000601f19601f8301169050919050565b6000611d4382611cd8565b611d4d8185611ce3565b9350611d5d818560208601611cf4565b611d6681611d27565b840191505092915050565b600060a082019050611d866000830188611cc9565b8181036020830152611d988187611d38565b90508181036040830152611dac8186611d38565b90508181036060830152611dc08185611d38565b90508181036080830152611dd48184611d38565b90509695505050505050565b600080fd5b7f4e487b7100000000000000000000000000000000000000000000000000000000600052604160045260246000fd5b611e1d82611d27565b810181811067ffffffffffffffff82111715611e3c57611e3b611de5565b5b80604052505050565b6000611e4f611bdc565b9050611e5b8282611e14565b919050565b600067ffffffffffffffff821115611e7b57611e7a611de5565b5b602082029050602081019050919050565b600080fd5b600073ffffffffffffffffffffffffffffffffffffffff82169050919050565b6000611ebc82611e91565b9050919050565b611ecc81611eb1565b8114611ed757600080fd5b50565b600081359050611ee981611ec3565b92915050565b6000611f02611efd84611e60565b611e45565b90508083825260208201905060208402830185811115611f2557611f24611e8c565b5b835b81811015611f4e5780611f3a8882611eda565b845260208401935050602081019050611f27565b5050509392505050565b600082601f830112611f6d57611f6c611de0565b5b8135611f7d848260208601611eef565b91505092915050565b60008060408385031215611f9d57611f9c611be6565b5b600083013567ffffffffffffffff811115611fbb57611fba611beb565b5b611fc785828601611f58565b9250506020611fd885828601611eda565b9150509250929050565b60008115159050919050565b611ff781611fe2565b82525050565b60006020820190506120126000830184611fee565b92915050565b60006020828403121561202e5761202d611be6565b5b600061203c84828501611eda565b91505092915050565b61204e81611eb1565b82525050565b7f4e487b7100000000000000000000000000000000000000000000000000000000600052602160045260246000fd5b600a811061209457612093612054565b5b50565b60008190506120a582612083565b919050565b60006120b582612097565b9050919050565b6120c5816120aa565b82525050565b60006040820190506120e06000830185612045565b6120ed60208301846120bc565b9392505050565b600080fd5b600080fd5b600080fd5b600067ffffffffffffffff82111561211e5761211d611de5565b5b61212782611d27565b9050602081019050919050565b82818337600083830152505050565b600061215661215184612103565b611e45565b905082815260208101848484011115612172576121716120fe565b5b61217d848285612134565b509392505050565b600082601f83011261219a57612199611de0565b5b81356121aa848260208601612143565b91505092915050565b600060a082840312156121c9576121c86120f4565b5b6121d360a0611e45565b905060006121e384828501611c11565b600083015250602082013567ffffffffffffffff811115612207576122066120f9565b5b61221384828501612185565b602083015250604082013567ffffffffffffffff811115612237576122366120f9565b5b61224384828501612185565b604083015250606082013567ffffffffffffffff811115612267576122666120f9565b5b61227384828501612185565b606083015250608082013567ffffffffffffffff811115612297576122966120f9565b5b6122a384828501612185565b60808301525092915050565b6000602082840312156122c5576122c4611be6565b5b600082013567ffffffffffffffff8111156122e3576122e2611beb565b5b6122ef848285016121b3565b91505092915050565b600060208201905061230d6000830184611cc9565b92915050565b600060208201905061232860008301846120bc565b92915050565b600a811061233b57600080fd5b50565b60008135905061234d8161232e565b92915050565b6000806040838503121561236a57612369611be6565b5b600061237885828601611eda565b92505060206123898582860161233e565b9150509250929050565b61239c81611c26565b82525050565b60006020820190506123b76000830184612393565b92915050565b6000806000606084860312156123d6576123d5611be6565b5b600084013567ffffffffffffffff8111156123f4576123f3611beb565b5b61240086828701612185565b935050602084013567ffffffffffffffff81111561242157612420611beb565b5b61242d86828701612185565b925050604084013567ffffffffffffffff81111561244e5761244d611beb565b5b61245a86828701612185565b9150509250925092565b6002811061247157600080fd5b50565b60008135905061248381612464565b92915050565b600080604083850312156124a05761249f611be6565b5b60006124ae85828601612474565b92505060206124bf85828601611c47565b9150509250929050565b60006020820190506124de6000830184612045565b92915050565b600080604083850312156124fb576124fa611be6565b5b600061250985828601611c11565b925050602061251a85828601611c11565b9150509250929050565b6000806040838503121561253b5761253a611be6565b5b600061254985828601611c11565b925050602083013567ffffffffffffffff81111561256a57612569611beb565b5b61257685828601612185565b9150509250929050565b60006080820190506125956000830187611cc9565b6125a26020830186611cc9565b6125af6040830185612393565b6125bc60608301846120bc565b95945050505050565b7f536f6c6f20756e2066756e7a696f6e617265206f707075726520756e206f776e60008201527f657220706f73736f6e6f2073766f6c6765726520717565737461206f7065726160208201527f7a696f6e65000000000000000000000000000000000000000000000000000000604082015250565b6000612647604583611ce3565b9150612652826125c5565b606082019050919050565b600060208201905081810360008301526126768161263a565b9050919050565b7f4e487b7100000000000000000000000000000000000000000000000000000000600052601160045260246000fd5b60006126b782611c26565b91506126c283611c26565b9250828210156126d5576126d461267d565b5b828203905092915050565b7f4e487b7100000000000000000000000000000000000000000000000000000000600052602260045260246000fd5b6000600282049050600182168061272757607f821691505b6020821081141561273b5761273a6126e0565b5b50919050565b7f4e487b7100000000000000000000000000000000000000000000000000000000600052603260045260246000fd5b600061277b82611c26565b91507fffffffffffffffffffffffffffffffffffffffffffffffffffffffffffffffff8214156127ae576127ad61267d565b5b600182019050919050565b600081905092915050565b60006127cf82611cd8565b6127d981856127b9565b93506127e9818560208601611cf4565b80840191505092915050565b6000819050919050565b61281061280b82611c26565b6127f5565b82525050565b600061282282876127c4565b915061282e82866127c4565b915061283a82856127c4565b915061284682846127ff565b60208201915081905095945050505050565b600060408201905061286d6000830185611cc9565b61287a6020830184611cc9565b9392505050565b7f536f6c6f20696c2070726f70726965746172696f2070756f272061676769756e60008201527f676572652066756e7a696f6e6172690000000000000000000000000000000000602082015250565b60006128dd602f83611ce3565b91506128e882612881565b604082019050919050565b6000602082019050818103600083015261290c816128d0565b9050919050565b600061291e82611c26565b915061292983611c26565b9250827fffffffffffffffffffffffffffffffffffffffffffffffffffffffffffffffff0382111561295e5761295d61267d565b5b828201905092915050565b600061297582866127c4565b915061298182856127c4565b915061298d82846127c4565b9150819050949350505050565b60006080820190506129af6000830187611cc9565b81810360208301526129c18186611d38565b905081810360408301526129d58185611d38565b905081810360608301526129e98184611d38565b90509594505050505056fea2646970667358221220357948a0d960943333ce824bdd6448f71576daf6969631429e72cb3b7d6c270364736f6c634300080b0033",
  "immutableReferences": {},
  "source": "// SPDX-License-Identifier: MIT\npragma solidity >=0.4.22 <0.9.0;\n\nimport \"./GestioneRuoli.sol\";\n\n/**\n* @title GestoreGenerale\n* @author Gabriele Benedetti, Giulia Pascale \n* @notice Contratto che offre strumenti utili per la gestione di tessere per la raccolta punti di supermercati e negozi\n*/\ncontract GestoreGenerale is GestioneRuoli{\n\n    \n    //mapping(bytes32 => mapping(bytes32 => Carta)) public listaCarte_clienti; //\n    mapping(bytes32 => Carta) public carte;\n\n    event NuovaCarta(\n        bytes32 id,\n        bytes32 id_cliente\n    );\n\n    function addCarta(Cliente memory c) public onlyFunzionarioOrOwner returns(bytes32) {\n        uint date = block.timestamp;\n        bytes32 ID = keccak256(abi.encodePacked(c.nome, c.cognome, c.dataDiNascita, date));\n        Carta memory i = Carta(ID, c.id, 0, funzionari[msg.sender].negozio);\n        //listaCarte_clienti[c.id][ID] = i;\n        carte[ID] = i;\n        emit NuovaCarta(ID, c.id);\n        return ID;\n    }\n\n    function addPunti(bytes32 id_carta, uint numeroPunti) public onlyFunzionarioOrOwner{\n        carte[id_carta].punti += numeroPunti;\n        //listaCarte_clienti[id_cliente][id_carta].punti += numeroPunti;\n    }\n\n    function removePunti(bytes32 id_carta, uint numeroPunti) public onlyFunzionarioOrOwner{\n        //listaCarte_clienti[id_cliente][id_carta].punti -= numeroPunti;\n        carte[id_carta].punti -= numeroPunti;\n    }\n\n    function getPunti(bytes32 id_carta) public view returns(uint){\n        return carte[id_carta].punti;\n        //return listaCarte_clienti[id_cliente][id_carta].punti;\n    }\n\n\n    //Prende in input una carstringa e la inserisce nei dati di un cliente. Utile qualora si dovesse inserire notazioni su un cliente che ha avuto problemi con la carta o il negozio\n    function addNote(bytes32 id, string memory descrizione) public onlyFunzionarioOrOwner{\n        clienti[id].note = descrizione;\n    }\n\n    //Prende in input una carta e ne azzera i punti\n    function azzeraPunti(bytes32 id) public onlyFunzionarioOrOwner{\n        carte[id].punti = 0;\n    }\n\n    //Prende in input due carte e trasferisce i punti da una alla seconda. (Es: carta smagnetizzata, ne occorre fare una nuova)\n    function movePunti(bytes32 id_from, bytes32 id_destinatario) public onlyFunzionarioOrOwner{\n        uint ammontare = carte[id_from].punti;\n        carte[id_destinatario].punti += ammontare;\n    }\n\n    //Dato in input un id di una carta, la cancella\n    function deleteCarta(bytes32 id) public onlyFunzionarioOrOwner{\n        delete carte[id];\n    }\n\n    //Dato in input un id di una carta, la cancella\n    function deleteCliente(bytes32 id_cliente) public onlyFunzionarioOrOwner{\n        delete clienti[id_cliente];\n    }\n\n}\n\n\n",
  "sourcePath": "/home/gabriele/Scrivania/SDC/Progetto-Sistemi-distribuiti-cooperativi/contracts/GestoreGenerale.sol",
  "compiler": {
    "name": "solc",
    "version": "0.8.11+commit.d7f03943.Emscripten.clang"
  },
  "schemaVersion": "3.4.3",
  "updatedAt": "2022-02-11T11:16:45.913Z",
  "networkType": "ethereum",
  "devdoc": {
    "author": "Gabriele Benedetti, Giulia Pascale ",
    "kind": "dev",
    "methods": {},
    "title": "GestoreGenerale",
    "version": 1
  },
  "userdoc": {
    "kind": "user",
    "methods": {},
    "notice": "Contratto che offre strumenti utili per la gestione di tessere per la raccolta punti di supermercati e negozi",
    "version": 1
  }
}